{"@thirdweb-dev/contracts/base/ERC20Drop.sol":{"ERC20Drop":{"abi":[{"inputs":[{"internalType":"address","name":"_defaultAdmin","type":"address"},{"internalType":"string","name":"_name","type":"string"},{"internalType":"string","name":"_symbol","type":"string"},{"internalType":"address","name":"_primarySaleRecipient","type":"address"}],"stateMutability":"nonpayable","type":"constructor"},{"inputs":[],"name":"ContractMetadataUnauthorized","type":"error"},{"inputs":[{"internalType":"address","name":"recipient","type":"address"},{"internalType":"uint256","name":"value","type":"uint256"}],"name":"CurrencyTransferLibFailedNativeTransfer","type":"error"},{"inputs":[{"internalType":"uint256","name":"expected","type":"uint256"},{"internalType":"uint256","name":"actual","type":"uint256"}],"name":"DropClaimExceedLimit","type":"error"},{"inputs":[{"internalType":"uint256","name":"expected","type":"uint256"},{"internalType":"uint256","name":"actual","type":"uint256"}],"name":"DropClaimExceedMaxSupply","type":"error"},{"inputs":[{"internalType":"address","name":"expectedCurrency","type":"address"},{"internalType":"uint256","name":"expectedPricePerToken","type":"uint256"},{"internalType":"address","name":"actualCurrency","type":"address"},{"internalType":"uint256","name":"actualExpectedPricePerToken","type":"uint256"}],"name":"DropClaimInvalidTokenPrice","type":"error"},{"inputs":[{"internalType":"uint256","name":"expected","type":"uint256"},{"internalType":"uint256","name":"actual","type":"uint256"}],"name":"DropClaimNotStarted","type":"error"},{"inputs":[],"name":"DropExceedMaxSupply","type":"error"},{"inputs":[],"name":"DropNoActiveCondition","type":"error"},{"inputs":[],"name":"DropUnauthorized","type":"error"},{"inputs":[],"name":"OwnableUnauthorized","type":"error"},{"inputs":[{"internalType":"address","name":"recipient","type":"address"}],"name":"PrimarySaleInvalidRecipient","type":"error"},{"inputs":[],"name":"PrimarySaleUnauthorized","type":"error"},{"anonymous":false,"inputs":[{"indexed":true,"internalType":"address","name":"owner","type":"address"},{"indexed":true,"internalType":"address","name":"spender","type":"address"},{"indexed":false,"internalType":"uint256","name":"value","type":"uint256"}],"name":"Approval","type":"event"},{"anonymous":false,"inputs":[{"components":[{"internalType":"uint256","name":"startTimestamp","type":"uint256"},{"internalType":"uint256","name":"maxClaimableSupply","type":"uint256"},{"internalType":"uint256","name":"supplyClaimed","type":"uint256"},{"internalType":"uint256","name":"quantityLimitPerWallet","type":"uint256"},{"internalType":"bytes32","name":"merkleRoot","type":"bytes32"},{"internalType":"uint256","name":"pricePerToken","type":"uint256"},{"internalType":"address","name":"currency","type":"address"},{"internalType":"string","name":"metadata","type":"string"}],"indexed":false,"internalType":"struct IClaimCondition.ClaimCondition","name":"condition","type":"tuple"},{"indexed":false,"internalType":"bool","name":"resetEligibility","type":"bool"}],"name":"ClaimConditionUpdated","type":"event"},{"anonymous":false,"inputs":[{"indexed":false,"internalType":"string","name":"prevURI","type":"string"},{"indexed":false,"internalType":"string","name":"newURI","type":"string"}],"name":"ContractURIUpdated","type":"event"},{"anonymous":false,"inputs":[{"indexed":true,"internalType":"address","name":"prevOwner","type":"address"},{"indexed":true,"internalType":"address","name":"newOwner","type":"address"}],"name":"OwnerUpdated","type":"event"},{"anonymous":false,"inputs":[{"indexed":true,"internalType":"address","name":"recipient","type":"address"}],"name":"PrimarySaleRecipientUpdated","type":"event"},{"anonymous":false,"inputs":[{"indexed":true,"internalType":"address","name":"claimer","type":"address"},{"indexed":true,"internalType":"address","name":"receiver","type":"address"},{"indexed":true,"internalType":"uint256","name":"startTokenId","type":"uint256"},{"indexed":false,"internalType":"uint256","name":"quantityClaimed","type":"uint256"}],"name":"TokensClaimed","type":"event"},{"anonymous":false,"inputs":[{"indexed":true,"internalType":"address","name":"from","type":"address"},{"indexed":true,"internalType":"address","name":"to","type":"address"},{"indexed":false,"internalType":"uint256","name":"value","type":"uint256"}],"name":"Transfer","type":"event"},{"inputs":[],"name":"DOMAIN_SEPARATOR","outputs":[{"internalType":"bytes32","name":"","type":"bytes32"}],"stateMutability":"view","type":"function"},{"inputs":[{"internalType":"address","name":"owner","type":"address"},{"internalType":"address","name":"spender","type":"address"}],"name":"allowance","outputs":[{"internalType":"uint256","name":"","type":"uint256"}],"stateMutability":"view","type":"function"},{"inputs":[{"internalType":"address","name":"spender","type":"address"},{"internalType":"uint256","name":"amount","type":"uint256"}],"name":"approve","outputs":[{"internalType":"bool","name":"","type":"bool"}],"stateMutability":"nonpayable","type":"function"},{"inputs":[{"internalType":"address","name":"account","type":"address"}],"name":"balanceOf","outputs":[{"internalType":"uint256","name":"","type":"uint256"}],"stateMutability":"view","type":"function"},{"inputs":[{"internalType":"uint256","name":"_amount","type":"uint256"}],"name":"burn","outputs":[],"stateMutability":"nonpayable","type":"function"},{"inputs":[{"internalType":"address","name":"_account","type":"address"},{"internalType":"uint256","name":"_amount","type":"uint256"}],"name":"burnFrom","outputs":[],"stateMutability":"nonpayable","type":"function"},{"inputs":[{"internalType":"address","name":"_receiver","type":"address"},{"internalType":"uint256","name":"_quantity","type":"uint256"},{"internalType":"address","name":"_currency","type":"address"},{"internalType":"uint256","name":"_pricePerToken","type":"uint256"},{"components":[{"internalType":"bytes32[]","name":"proof","type":"bytes32[]"},{"internalType":"uint256","name":"quantityLimitPerWallet","type":"uint256"},{"internalType":"uint256","name":"pricePerToken","type":"uint256"},{"internalType":"address","name":"currency","type":"address"}],"internalType":"struct IDropSinglePhase.AllowlistProof","name":"_allowlistProof","type":"tuple"},{"internalType":"bytes","name":"_data","type":"bytes"}],"name":"claim","outputs":[],"stateMutability":"payable","type":"function"},{"inputs":[],"name":"claimCondition","outputs":[{"internalType":"uint256","name":"startTimestamp","type":"uint256"},{"internalType":"uint256","name":"maxClaimableSupply","type":"uint256"},{"internalType":"uint256","name":"supplyClaimed","type":"uint256"},{"internalType":"uint256","name":"quantityLimitPerWallet","type":"uint256"},{"internalType":"bytes32","name":"merkleRoot","type":"bytes32"},{"internalType":"uint256","name":"pricePerToken","type":"uint256"},{"internalType":"address","name":"currency","type":"address"},{"internalType":"string","name":"metadata","type":"string"}],"stateMutability":"view","type":"function"},{"inputs":[],"name":"contractURI","outputs":[{"internalType":"string","name":"","type":"string"}],"stateMutability":"view","type":"function"},{"inputs":[],"name":"decimals","outputs":[{"internalType":"uint8","name":"","type":"uint8"}],"stateMutability":"view","type":"function"},{"inputs":[{"internalType":"address","name":"spender","type":"address"},{"internalType":"uint256","name":"subtractedValue","type":"uint256"}],"name":"decreaseAllowance","outputs":[{"internalType":"bool","name":"","type":"bool"}],"stateMutability":"nonpayable","type":"function"},{"inputs":[{"internalType":"address","name":"_claimer","type":"address"}],"name":"getSupplyClaimedByWallet","outputs":[{"internalType":"uint256","name":"","type":"uint256"}],"stateMutability":"view","type":"function"},{"inputs":[{"internalType":"address","name":"spender","type":"address"},{"internalType":"uint256","name":"addedValue","type":"uint256"}],"name":"increaseAllowance","outputs":[{"internalType":"bool","name":"","type":"bool"}],"stateMutability":"nonpayable","type":"function"},{"inputs":[{"internalType":"bytes[]","name":"data","type":"bytes[]"}],"name":"multicall","outputs":[{"internalType":"bytes[]","name":"results","type":"bytes[]"}],"stateMutability":"nonpayable","type":"function"},{"inputs":[],"name":"name","outputs":[{"internalType":"string","name":"","type":"string"}],"stateMutability":"view","type":"function"},{"inputs":[{"internalType":"address","name":"owner","type":"address"}],"name":"nonces","outputs":[{"internalType":"uint256","name":"","type":"uint256"}],"stateMutability":"view","type":"function"},{"inputs":[],"name":"owner","outputs":[{"internalType":"address","name":"","type":"address"}],"stateMutability":"view","type":"function"},{"inputs":[{"internalType":"address","name":"owner","type":"address"},{"internalType":"address","name":"spender","type":"address"},{"internalType":"uint256","name":"value","type":"uint256"},{"internalType":"uint256","name":"deadline","type":"uint256"},{"internalType":"uint8","name":"v","type":"uint8"},{"internalType":"bytes32","name":"r","type":"bytes32"},{"internalType":"bytes32","name":"s","type":"bytes32"}],"name":"permit","outputs":[],"stateMutability":"nonpayable","type":"function"},{"inputs":[],"name":"primarySaleRecipient","outputs":[{"internalType":"address","name":"","type":"address"}],"stateMutability":"view","type":"function"},{"inputs":[{"components":[{"internalType":"uint256","name":"startTimestamp","type":"uint256"},{"internalType":"uint256","name":"maxClaimableSupply","type":"uint256"},{"internalType":"uint256","name":"supplyClaimed","type":"uint256"},{"internalType":"uint256","name":"quantityLimitPerWallet","type":"uint256"},{"internalType":"bytes32","name":"merkleRoot","type":"bytes32"},{"internalType":"uint256","name":"pricePerToken","type":"uint256"},{"internalType":"address","name":"currency","type":"address"},{"internalType":"string","name":"metadata","type":"string"}],"internalType":"struct IClaimCondition.ClaimCondition","name":"_condition","type":"tuple"},{"internalType":"bool","name":"_resetClaimEligibility","type":"bool"}],"name":"setClaimConditions","outputs":[],"stateMutability":"nonpayable","type":"function"},{"inputs":[{"internalType":"string","name":"_uri","type":"string"}],"name":"setContractURI","outputs":[],"stateMutability":"nonpayable","type":"function"},{"inputs":[{"internalType":"address","name":"_newOwner","type":"address"}],"name":"setOwner","outputs":[],"stateMutability":"nonpayable","type":"function"},{"inputs":[{"internalType":"address","name":"_saleRecipient","type":"address"}],"name":"setPrimarySaleRecipient","outputs":[],"stateMutability":"nonpayable","type":"function"},{"inputs":[],"name":"symbol","outputs":[{"internalType":"string","name":"","type":"string"}],"stateMutability":"view","type":"function"},{"inputs":[],"name":"totalSupply","outputs":[{"internalType":"uint256","name":"","type":"uint256"}],"stateMutability":"view","type":"function"},{"inputs":[{"internalType":"address","name":"to","type":"address"},{"internalType":"uint256","name":"amount","type":"uint256"}],"name":"transfer","outputs":[{"internalType":"bool","name":"","type":"bool"}],"stateMutability":"nonpayable","type":"function"},{"inputs":[{"internalType":"address","name":"from","type":"address"},{"internalType":"address","name":"to","type":"address"},{"internalType":"uint256","name":"amount","type":"uint256"}],"name":"transferFrom","outputs":[{"internalType":"bool","name":"","type":"bool"}],"stateMutability":"nonpayable","type":"function"},{"inputs":[{"internalType":"address","name":"_claimer","type":"address"},{"internalType":"uint256","name":"_quantity","type":"uint256"},{"internalType":"address","name":"_currency","type":"address"},{"internalType":"uint256","name":"_pricePerToken","type":"uint256"},{"components":[{"internalType":"bytes32[]","name":"proof","type":"bytes32[]"},{"internalType":"uint256","name":"quantityLimitPerWallet","type":"uint256"},{"internalType":"uint256","name":"pricePerToken","type":"uint256"},{"internalType":"address","name":"currency","type":"address"}],"internalType":"struct IDropSinglePhase.AllowlistProof","name":"_allowlistProof","type":"tuple"}],"name":"verifyClaim","outputs":[{"internalType":"bool","name":"isOverride","type":"bool"}],"stateMutability":"view","type":"function"}],"evm":{"bytecode":{"linkReferences":{},"object":"6101006040527f6e71edae12b1b97f4d1f60370fef10105fa2faae0126114a169c64845d6126c960e0523480156200003657600080fd5b50604051620035333803806200353383398101604081905262000059916200039b565b8282818160056200006b8382620004ba565b5060066200007a8282620004ba565b50504660a052503060c0526200008f620000b5565b60805250620000a09050846200014c565b620000ab816200019e565b5050505062000586565b60007f8b73c3c69bb8fe3d512ecc4cf759cc79239f7b179b0ffacaa9a75d522b39400f620000e26200021f565b80516020918201206040805192830193909352918101919091527fc89efdaa54c0f20c7adf612882df0950f5a951637e0307cdcb4c672f298b8bc660608201524660808201523060a082015260c00160405160208183030381529060405280519060200120905090565b600180546001600160a01b038381166001600160a01b0319831681179093556040519116919082907f8292fce18fa69edf4db7b94ea2e58241df0ae57f97e0a6c9b29067028bf92d7690600090a35050565b6001600160a01b038116620001d557604051630f7cac3760e21b81526001600160a01b038216600482015260240160405180910390fd5b600880546001600160a01b0319166001600160a01b0383169081179091556040517f299d17e95023f496e0ffc4909cff1a61f74bb5eb18de6f900f4155bfa1b3b33390600090a250565b60606005805462000230906200042b565b80601f01602080910402602001604051908101604052809291908181526020018280546200025e906200042b565b8015620002af5780601f106200028357610100808354040283529160200191620002af565b820191906000526020600020905b8154815290600101906020018083116200029157829003601f168201915b5050505050905090565b80516001600160a01b0381168114620002d157600080fd5b919050565b634e487b7160e01b600052604160045260246000fd5b600082601f830112620002fe57600080fd5b81516001600160401b03808211156200031b576200031b620002d6565b604051601f8301601f19908116603f01168101908282118183101715620003465762000346620002d6565b816040528381526020925086838588010111156200036357600080fd5b600091505b8382101562000387578582018301518183018401529082019062000368565b600093810190920192909252949350505050565b60008060008060808587031215620003b257600080fd5b620003bd85620002b9565b60208601519094506001600160401b0380821115620003db57600080fd5b620003e988838901620002ec565b945060408701519150808211156200040057600080fd5b506200040f87828801620002ec565b9250506200042060608601620002b9565b905092959194509250565b600181811c908216806200044057607f821691505b6020821081036200046157634e487b7160e01b600052602260045260246000fd5b50919050565b601f821115620004b557600081815260208120601f850160051c81016020861015620004905750805b601f850160051c820191505b81811015620004b1578281556001016200049c565b5050505b505050565b81516001600160401b03811115620004d657620004d6620002d6565b620004ee81620004e784546200042b565b8462000467565b602080601f8311600181146200052657600084156200050d5750858301515b600019600386901b1c1916600185901b178555620004b1565b600085815260208120601f198616915b82811015620005575788860151825594840194600190910190840162000536565b5085821015620005765787850151600019600388901b60f8161c191681555b5050505050600190811b01905550565b60805160a05160c05160e051612f73620005c06000396000610e5f01526000610696015260006106c0015260006106ea0152612f736000f3fe6080604052600436106101b75760003560e01c806379cc6790116100ec578063a9059cbb1161008a578063d637ed5911610064578063d637ed5914610508578063dd62ed3e14610531578063e8a3d48514610551578063eec8897c1461056657600080fd5b8063a9059cbb1461049b578063ac9650d8146104bb578063d505accf146104e857600080fd5b80638da5cb5b116100c65780638da5cb5b14610428578063938e3d7b1461044657806395d89b4114610466578063a457c2d71461047b57600080fd5b806379cc6790146103d55780637ecebe00146103f557806384bb1e421461041557600080fd5b806335b65e1f11610159578063426cfaf311610133578063426cfaf31461033f57806342966c681461035f5780636f4f28371461037f57806370a082311461039f57600080fd5b806335b65e1f146102c65780633644e5151461030a578063395093511461031f57600080fd5b806313af40351161019557806313af40351461024957806318160ddd1461026b57806323b872dd1461028a578063313ce567146102aa57600080fd5b806306fdde03146101bc578063079fe40e146101e7578063095ea7b314610219575b600080fd5b3480156101c857600080fd5b506101d1610586565b6040516101de9190612606565b60405180910390f35b3480156101f357600080fd5b506008546001600160a01b03165b6040516001600160a01b0390911681526020016101de565b34801561022557600080fd5b50610239610234366004612635565b610618565b60405190151581526020016101de565b34801561025557600080fd5b5061026961026436600461265f565b610632565b005b34801561027757600080fd5b506004545b6040519081526020016101de565b34801561029657600080fd5b506102396102a536600461267a565b610663565b3480156102b657600080fd5b50604051601281526020016101de565b3480156102d257600080fd5b5061027c6102e136600461265f565b60115460009081526012602090815260408083206001600160a01b039094168352929052205490565b34801561031657600080fd5b5061027c610689565b34801561032b57600080fd5b5061023961033a366004612635565b610719565b34801561034b57600080fd5b5061026961035a3660046126c4565b610758565b34801561036b57600080fd5b5061026961037a36600461271c565b610941565b34801561038b57600080fd5b5061026961039a36600461265f565b6109a4565b3480156103ab57600080fd5b5061027c6103ba36600461265f565b6001600160a01b031660009081526002602052604090205490565b3480156103e157600080fd5b506102696103f0366004612635565b6109d2565b34801561040157600080fd5b5061027c61041036600461265f565b610ac8565b6102696104233660046127d3565b610ae6565b34801561043457600080fd5b506001546001600160a01b0316610201565b34801561045257600080fd5b5061026961046136600461287e565b610bb3565b34801561047257600080fd5b506101d1610be1565b34801561048757600080fd5b50610239610496366004612635565b610bf0565b3480156104a757600080fd5b506102396104b6366004612635565b610c8d565b3480156104c757600080fd5b506104db6104d63660046128c7565b610c9b565b6040516101de919061293c565b3480156104f457600080fd5b5061026961050336600461299e565b610e0b565b34801561051457600080fd5b5061051d610f91565b6040516101de989796959493929190612a11565b34801561053d57600080fd5b5061027c61054c366004612a66565b611050565b34801561055d57600080fd5b506101d161107b565b34801561057257600080fd5b50610239610581366004612a99565b611109565b60606005805461059590612b0b565b80601f01602080910402602001604051908101604052809291908181526020018280546105c190612b0b565b801561060e5780601f106105e35761010080835404028352916020019161060e565b820191906000526020600020905b8154815290600101906020018083116105f157829003601f168201915b5050505050905090565b60003361062681858561146d565b60019150505b92915050565b61063a611591565b610657576040516316ccb9cb60e11b815260040160405180910390fd5b610660816115be565b50565b600033610671858285611610565b61067c85858561168a565b60019150505b9392505050565b6000306001600160a01b037f0000000000000000000000000000000000000000000000000000000000000000161480156106e257507f000000000000000000000000000000000000000000000000000000000000000046145b1561070c57507f000000000000000000000000000000000000000000000000000000000000000090565b610714611858565b905090565b3360008181526003602090815260408083206001600160a01b03871684529091528120549091906106269082908690610753908790612b55565b61146d565b610760611591565b61077d576040516356c4ef5160e01b815260040160405180910390fd5b601154600b5482156107c7575060003360405160609190911b6001600160601b03191660208201524360348201526054016040516020818303038152906040528051906020012091505b83602001358111156107ec5760405163032b539f60e11b815260040160405180910390fd5b604051806101000160405280856000013581526020018560200135815260200182815260200185606001358152602001856080013581526020018560a0013581526020018560c0016020810190610843919061265f565b6001600160a01b0316815260200161085e60e0870187612b68565b8080601f0160208091040260200160405190810160405280939291908181526020018383808284376000920191909152505050915250805160099081556020820151600a556040820151600b556060820151600c556080820151600d5560a0820151600e5560c0820151600f80546001600160a01b0319166001600160a01b0390921691909117905560e08201516010906108f99082612bfc565b50505060118290556040517f6dab9d7d05d468100139089b2516cb8ff286c3972ff070d3b509e371f0d0d4b8906109339086908690612ce5565b60405180910390a150505050565b3360009081526002602052604090205481111561099a5760405162461bcd60e51b81526020600482015260126024820152716e6f7420656e6f7567682062616c616e636560701b60448201526064015b60405180910390fd5b61066033826118ed565b6109ac611591565b6109c957604051631c98210f60e21b815260040160405180910390fd5b61066081611a3b565b6109da611591565b610a265760405162461bcd60e51b815260206004820152601760248201527f4e6f7420617574686f72697a656420746f206275726e2e0000000000000000006044820152606401610991565b80610a46836001600160a01b031660009081526002602052604090205490565b1015610a895760405162461bcd60e51b81526020600482015260126024820152716e6f7420656e6f7567682062616c616e636560701b6044820152606401610991565b600081610a968433611050565b610aa09190612db3565b9050610aae8333600061146d565b610ab983338361146d565b610ac383836118ed565b505050565b6001600160a01b03811660009081526007602052604081205461062c565b601154610af63387878787611109565b508560096002016000828254610b0c9190612b55565b9091555050600081815260126020908152604080832033845290915281208054889290610b3a908490612b55565b90915550610b4d90506000878787611abf565b6000610b598888611c17565b9050806001600160a01b038916336001600160a01b03167fff097c7d8b1957a4ff09ef1361b5fb54dcede3941ba836d0beb9d10bec725de68a604051610ba191815260200190565b60405180910390a45050505050505050565b610bbb611591565b610bd857604051639f7f092560e01b815260040160405180910390fd5b61066081611c2c565b60606006805461059590612b0b565b3360008181526003602090815260408083206001600160a01b038716845290915281205490919083811015610c755760405162461bcd60e51b815260206004820152602560248201527f45524332303a2064656372656173656420616c6c6f77616e63652062656c6f77604482015264207a65726f60d81b6064820152608401610991565b610c82828686840361146d565b506001949350505050565b60003361062681858561168a565b60608167ffffffffffffffff811115610cb657610cb6612747565b604051908082528060200260200182016040528015610ce957816020015b6060815260200190600190039081610cd45790505b509050336000805b84811015610e02578115610d7057610d4e30878784818110610d1557610d15612dc6565b9050602002810190610d279190612b68565b86604051602001610d3a93929190612ddc565b604051602081830303815290604052611d07565b848281518110610d6057610d60612dc6565b6020026020010181905250610df0565b610dd230878784818110610d8657610d86612dc6565b9050602002810190610d989190612b68565b8080601f016020809104026020016040519081016040528093929190818152602001838380828437600092019190915250611d0792505050565b848281518110610de457610de4612dc6565b60200260200101819052505b80610dfa81612dfd565b915050610cf1565b50505092915050565b83421115610e5b5760405162461bcd60e51b815260206004820152601d60248201527f45524332305065726d69743a206578706972656420646561646c696e650000006044820152606401610991565b60007f0000000000000000000000000000000000000000000000000000000000000000888888610e8a8c611d2c565b6040805160208101969096526001600160a01b0394851690860152929091166060840152608083015260a082015260c0810186905260e0016040516020818303038152906040528051906020012090506000610f07610ee7610689565b8360405161190160f01b8152600281019290925260228201526042902090565b90506000610f1782878787611d54565b9050896001600160a01b0316816001600160a01b031614610f7a5760405162461bcd60e51b815260206004820152601e60248201527f45524332305065726d69743a20696e76616c6964207369676e617475726500006044820152606401610991565b610f858a8a8a61146d565b50505050505050505050565b60098054600a54600b54600c54600d54600e54600f54601080549798969795969495939492936001600160a01b039092169291610fcd90612b0b565b80601f0160208091040260200160405190810160405280929190818152602001828054610ff990612b0b565b80156110465780601f1061101b57610100808354040283529160200191611046565b820191906000526020600020905b81548152906001019060200180831161102957829003601f168201915b5050505050905088565b6001600160a01b03918216600090815260036020908152604080832093909416825291909152205490565b6000805461108890612b0b565b80601f01602080910402602001604051908101604052809291908181526020018280546110b490612b0b565b80156111015780601f106110d657610100808354040283529160200191611101565b820191906000526020600020905b8154815290600101906020018083116110e457829003601f168201915b505050505081565b6040805161010081018252600980548252600a546020830152600b5492820192909252600c546060820152600d546080820152600e5460a0820152600f546001600160a01b031660c082015260108054600093849392909160e08401919061117090612b0b565b80601f016020809104026020016040519081016040528092919081815260200182805461119c90612b0b565b80156111e95780601f106111be576101008083540402835291602001916111e9565b820191906000526020600020905b8154815290600101906020018083116111cc57829003601f168201915b50505091909252505050606081015160a082015160c08301516080840151939450919290919015611297576112936112218780612e16565b86608001518d8a602001358b604001358c6060016020810190611244919061265f565b6040516001600160601b0319606095861b811660208301526034820194909452605481019290925290921b16607482015260880160405160208183030381529060405280519060200120611d7e565b5094505b841561131e5785602001356000036112af57826112b5565b85602001355b92506000198660400135036112ca57816112d0565b85604001355b9150600019866040013514158015611301575060006112f5608088016060890161265f565b6001600160a01b031614155b61130b578061131b565b61131b608087016060880161265f565b90505b60115460009081526012602090815260408083206001600160a01b03808f168552925290912054908981169083161415806113595750828814155b156113985760405163f13474e960e01b81526001600160a01b03808b166004830152602482018a90528316604482015260648101849052608401610991565b8915806113ad5750836113ab828c612b55565b115b156113df57836113bd828c612b55565b604051639e7762db60e01b815260048101929092526024820152604401610991565b84602001518a86604001516113f49190612b55565b11156114315784602001518a866040015161140f9190612b55565b60405163fe381cc960e01b815260048101929092526024820152604401610991565b845142101561145f5784516040516322b1048f60e11b81526004810191909152426024820152604401610991565b505050505095945050505050565b6001600160a01b0383166114cf5760405162461bcd60e51b8152602060048201526024808201527f45524332303a20617070726f76652066726f6d20746865207a65726f206164646044820152637265737360e01b6064820152608401610991565b6001600160a01b0382166115305760405162461bcd60e51b815260206004820152602260248201527f45524332303a20617070726f766520746f20746865207a65726f206164647265604482015261737360f01b6064820152608401610991565b6001600160a01b0383811660008181526003602090815260408083209487168084529482529182902085905590518481527f8c5be1e5ebec7d5bd14f71427d1e84f3dd0314c0f7b2291e5b200ac8c7c3b925910160405180910390a3505050565b60006115a56001546001600160a01b031690565b6001600160a01b0316336001600160a01b031614905090565b600180546001600160a01b038381166001600160a01b0319831681179093556040519116919082907f8292fce18fa69edf4db7b94ea2e58241df0ae57f97e0a6c9b29067028bf92d7690600090a35050565b600061161c8484611050565b9050600019811461168457818110156116775760405162461bcd60e51b815260206004820152601d60248201527f45524332303a20696e73756666696369656e7420616c6c6f77616e63650000006044820152606401610991565b611684848484840361146d565b50505050565b6001600160a01b0383166116ee5760405162461bcd60e51b815260206004820152602560248201527f45524332303a207472616e736665722066726f6d20746865207a65726f206164604482015264647265737360d81b6064820152608401610991565b6001600160a01b0382166117505760405162461bcd60e51b815260206004820152602360248201527f45524332303a207472616e7366657220746f20746865207a65726f206164647260448201526265737360e81b6064820152608401610991565b6001600160a01b038316600090815260026020526040902054818110156117c85760405162461bcd60e51b815260206004820152602660248201527f45524332303a207472616e7366657220616d6f756e7420657863656564732062604482015265616c616e636560d01b6064820152608401610991565b6001600160a01b038085166000908152600260205260408082208585039055918516815290812080548492906117ff908490612b55565b92505081905550826001600160a01b0316846001600160a01b03167fddf252ad1be2c89b69c2b068fc378daa952ba7f163c4a11628f55a4df523b3ef8460405161184b91815260200190565b60405180910390a3611684565b60007f8b73c3c69bb8fe3d512ecc4cf759cc79239f7b179b0ffacaa9a75d522b39400f611883610586565b80516020918201206040805192830193909352918101919091527fc89efdaa54c0f20c7adf612882df0950f5a951637e0307cdcb4c672f298b8bc660608201524660808201523060a082015260c00160405160208183030381529060405280519060200120905090565b6001600160a01b03821661194d5760405162461bcd60e51b815260206004820152602160248201527f45524332303a206275726e2066726f6d20746865207a65726f206164647265736044820152607360f81b6064820152608401610991565b6001600160a01b038216600090815260026020526040902054818110156119c15760405162461bcd60e51b815260206004820152602260248201527f45524332303a206275726e20616d6f756e7420657863656564732062616c616e604482015261636560f01b6064820152608401610991565b6001600160a01b03831660009081526002602052604081208383039055600480548492906119f0908490612db3565b90915550506040518281526000906001600160a01b038516907fddf252ad1be2c89b69c2b068fc378daa952ba7f163c4a11628f55a4df523b3ef9060200160405180910390a3505050565b6001600160a01b038116611a6d57604051630f7cac3760e21b81526001600160a01b0382166004820152602401610991565b600880546001600160a01b0319166001600160a01b0383169081179091556040517f299d17e95023f496e0ffc4909cff1a61f74bb5eb18de6f900f4155bfa1b3b33390600090a250565b505050505050565b80600003611b03573415611afe5760405162461bcd60e51b81526020600482015260066024820152652156616c756560d01b6044820152606401610991565b611684565b6000670de0b6b3a7640000611b188386612e60565b611b229190612e77565b905060008111611b675760405162461bcd60e51b815260206004820152601060248201526f7175616e7469747920746f6f206c6f7760801b6044820152606401610991565b600073eeeeeeeeeeeeeeeeeeeeeeeeeeeeeeeeeeeeeeed196001600160a01b03851601611b975750348114611b9b565b5034155b80611bdc5760405162461bcd60e51b8152602060048201526011602482015270496e76616c6964206d73672076616c756560781b6044820152606401610991565b60006001600160a01b03871615611bf35786611c00565b6008546001600160a01b03165b9050611c0e85338386611e16565b50505050505050565b6000611c238383611e57565b50600092915050565b6000808054611c3a90612b0b565b80601f0160208091040260200160405190810160405280929190818152602001828054611c6690612b0b565b8015611cb35780601f10611c8857610100808354040283529160200191611cb3565b820191906000526020600020905b815481529060010190602001808311611c9657829003601f168201915b505050505090508160009081611cc99190612bfc565b507fc9c7c3fe08b88b4df9d4d47ef47d2c43d55c025a0ba88ca442580ed9e7348a168183604051611cfb929190612e99565b60405180910390a15050565b60606106828383604051806060016040528060278152602001612f1760279139611f36565b6001600160a01b03811660009081526007602052604090208054600181018255905b50919050565b6000806000611d6587878787611fae565b91509150611d728161206f565b5090505b949350505050565b6000808281805b87811015611e0457611d98600283612e60565b91506000898983818110611dae57611dae612dc6565b905060200201359050808411611dd35760008481526020829052604090209350611df1565b60008181526020859052604090209350611dee600184612b55565b92505b5080611dfc81612dfd565b915050611d85565b50908514925090505b94509492505050565b80156116845773eeeeeeeeeeeeeeeeeeeeeeeeeeeeeeeeeeeeeeed196001600160a01b03851601611e4b57611afe82826121b9565b6116848484848461223f565b6001600160a01b038216611ead5760405162461bcd60e51b815260206004820152601f60248201527f45524332303a206d696e7420746f20746865207a65726f2061646472657373006044820152606401610991565b8060046000828254611ebf9190612b55565b90915550506001600160a01b03821660009081526002602052604081208054839290611eec908490612b55565b90915550506040518181526001600160a01b038316906000907fddf252ad1be2c89b69c2b068fc378daa952ba7f163c4a11628f55a4df523b3ef9060200160405180910390a35050565b6060600080856001600160a01b031685604051611f539190612ec7565b600060405180830381855af49150503d8060008114611f8e576040519150601f19603f3d011682016040523d82523d6000602084013e611f93565b606091505b5091509150611fa486838387612292565b9695505050505050565b6000807f7fffffffffffffffffffffffffffffff5d576e7357a4501ddfe92f46681b20a0831115611fe55750600090506003611e0d565b6040805160008082526020820180845289905260ff881692820192909252606081018690526080810185905260019060a0016020604051602081039080840390855afa158015612039573d6000803e3d6000fd5b5050604051601f1901519150506001600160a01b03811661206257600060019250925050611e0d565b9660009650945050505050565b600081600481111561208357612083612ee3565b0361208b5750565b600181600481111561209f5761209f612ee3565b036120ec5760405162461bcd60e51b815260206004820152601860248201527f45434453413a20696e76616c6964207369676e617475726500000000000000006044820152606401610991565b600281600481111561210057612100612ee3565b0361214d5760405162461bcd60e51b815260206004820152601f60248201527f45434453413a20696e76616c6964207369676e6174757265206c656e677468006044820152606401610991565b600381600481111561216157612161612ee3565b036106605760405162461bcd60e51b815260206004820152602260248201527f45434453413a20696e76616c6964207369676e6174757265202773272076616c604482015261756560f01b6064820152608401610991565b6000826001600160a01b03168260405160006040518083038185875af1925050503d8060008114612206576040519150601f19603f3d011682016040523d82523d6000602084013e61220b565b606091505b5050905080610ac357604051635fdc4ec160e11b81526001600160a01b038416600482015260248101839052604401610991565b816001600160a01b0316836001600160a01b0316031561168457306001600160a01b0384160361227d57611afe6001600160a01b038516838361230b565b6116846001600160a01b03851684848461236e565b606083156123015782516000036122fa576001600160a01b0385163b6122fa5760405162461bcd60e51b815260206004820152601d60248201527f416464726573733a2063616c6c20746f206e6f6e2d636f6e74726163740000006044820152606401610991565b5081611d76565b611d7683836123a6565b6040516001600160a01b038316602482015260448101829052610ac390849063a9059cbb60e01b906064015b60408051601f198184030181529190526020810180516001600160e01b03166001600160e01b0319909316929092179091526123d0565b6040516001600160a01b03808516602483015283166044820152606481018290526116849085906323b872dd60e01b90608401612337565b8151156123b65781518083602001fd5b8060405162461bcd60e51b81526004016109919190612606565b6000612425826040518060400160405280602081526020017f5361666545524332303a206c6f772d6c6576656c2063616c6c206661696c6564815250856001600160a01b03166124a29092919063ffffffff16565b805190915015610ac357808060200190518101906124439190612ef9565b610ac35760405162461bcd60e51b815260206004820152602a60248201527f5361666545524332303a204552433230206f7065726174696f6e20646964206e6044820152691bdd081cdd58d8d9595960b21b6064820152608401610991565b6060611d768484600085856001600160a01b0385163b6125045760405162461bcd60e51b815260206004820152601d60248201527f416464726573733a2063616c6c20746f206e6f6e2d636f6e74726163740000006044820152606401610991565b600080866001600160a01b031685876040516125209190612ec7565b60006040518083038185875af1925050503d806000811461255d576040519150601f19603f3d011682016040523d82523d6000602084013e612562565b606091505b509150915061257282828661257d565b979650505050505050565b6060831561258c575081610682565b82511561259c5782518084602001fd5b8160405162461bcd60e51b81526004016109919190612606565b60005b838110156125d15781810151838201526020016125b9565b50506000910152565b600081518084526125f28160208601602086016125b6565b601f01601f19169290920160200192915050565b60208152600061068260208301846125da565b80356001600160a01b038116811461263057600080fd5b919050565b6000806040838503121561264857600080fd5b61265183612619565b946020939093013593505050565b60006020828403121561267157600080fd5b61068282612619565b60008060006060848603121561268f57600080fd5b61269884612619565b92506126a660208501612619565b9150604084013590509250925092565b801515811461066057600080fd5b600080604083850312156126d757600080fd5b823567ffffffffffffffff8111156126ee57600080fd5b8301610100818603121561270157600080fd5b91506020830135612711816126b6565b809150509250929050565b60006020828403121561272e57600080fd5b5035919050565b600060808284031215611d4e57600080fd5b634e487b7160e01b600052604160045260246000fd5b600067ffffffffffffffff8084111561277857612778612747565b604051601f8501601f19908116603f011681019082821181831017156127a0576127a0612747565b816040528093508581528686860111156127b957600080fd5b858560208301376000602087830101525050509392505050565b60008060008060008060c087890312156127ec57600080fd5b6127f587612619565b95506020870135945061280a60408801612619565b935060608701359250608087013567ffffffffffffffff8082111561282e57600080fd5b61283a8a838b01612735565b935060a089013591508082111561285057600080fd5b508701601f8101891361286257600080fd5b6128718982356020840161275d565b9150509295509295509295565b60006020828403121561289057600080fd5b813567ffffffffffffffff8111156128a757600080fd5b8201601f810184136128b857600080fd5b611d768482356020840161275d565b600080602083850312156128da57600080fd5b823567ffffffffffffffff808211156128f257600080fd5b818501915085601f83011261290657600080fd5b81358181111561291557600080fd5b8660208260051b850101111561292a57600080fd5b60209290920196919550909350505050565b6000602080830181845280855180835260408601915060408160051b870101925083870160005b8281101561299157603f1988860301845261297f8583516125da565b94509285019290850190600101612963565b5092979650505050505050565b600080600080600080600060e0888a0312156129b957600080fd5b6129c288612619565b96506129d060208901612619565b95506040880135945060608801359350608088013560ff811681146129f457600080fd5b9699959850939692959460a0840135945060c09093013592915050565b60006101008a83528960208401528860408401528760608401528660808401528560a084015260018060a01b03851660c08401528060e0840152612a57818401856125da565b9b9a5050505050505050505050565b60008060408385031215612a7957600080fd5b612a8283612619565b9150612a9060208401612619565b90509250929050565b600080600080600060a08688031215612ab157600080fd5b612aba86612619565b945060208601359350612acf60408701612619565b925060608601359150608086013567ffffffffffffffff811115612af257600080fd5b612afe88828901612735565b9150509295509295909350565b600181811c90821680612b1f57607f821691505b602082108103611d4e57634e487b7160e01b600052602260045260246000fd5b634e487b7160e01b600052601160045260246000fd5b8082018082111561062c5761062c612b3f565b6000808335601e19843603018112612b7f57600080fd5b83018035915067ffffffffffffffff821115612b9a57600080fd5b602001915036819003821315612baf57600080fd5b9250929050565b601f821115610ac357600081815260208120601f850160051c81016020861015612bdd5750805b601f850160051c820191505b81811015611ab757828155600101612be9565b815167ffffffffffffffff811115612c1657612c16612747565b612c2a81612c248454612b0b565b84612bb6565b602080601f831160018114612c5f5760008415612c475750858301515b600019600386901b1c1916600185901b178555611ab7565b600085815260208120601f198616915b82811015612c8e57888601518255948401946001909101908401612c6f565b5085821015612cac5787850151600019600388901b60f8161c191681555b5050505050600190811b01905550565b81835281816020850137506000828201602090810191909152601f909101601f19169091010190565b60408152823560408201526020830135606082015260408301356080820152606083013560a0820152608083013560c082015260a083013560e08201526000612d3060c08501612619565b6001600160a01b03166101008381019190915260e08501359036869003601e19018212612d5c57600080fd5b6020918601918201913567ffffffffffffffff811115612d7b57600080fd5b803603831315612d8a57600080fd5b81610120860152612da061014086018285612cbc565b9350505050610682602083018415159052565b8181038181111561062c5761062c612b3f565b634e487b7160e01b600052603260045260246000fd5b8284823760609190911b6001600160601b0319169101908152601401919050565b600060018201612e0f57612e0f612b3f565b5060010190565b6000808335601e19843603018112612e2d57600080fd5b83018035915067ffffffffffffffff821115612e4857600080fd5b6020019150600581901b3603821315612baf57600080fd5b808202811582820484141761062c5761062c612b3f565b600082612e9457634e487b7160e01b600052601260045260246000fd5b500490565b604081526000612eac60408301856125da565b8281036020840152612ebe81856125da565b95945050505050565b60008251612ed98184602087016125b6565b9190910192915050565b634e487b7160e01b600052602160045260246000fd5b600060208284031215612f0b57600080fd5b8151610682816126b656fe416464726573733a206c6f772d6c6576656c2064656c65676174652063616c6c206661696c6564a26469706673582212209d317054ef247707bc824a93b3aaed016e803f49f77a6295cc35d784d311e5ed64736f6c63430008110033","opcodes":"PUSH2 0x100 PUSH1 0x40 MSTORE PUSH32 0x6E71EDAE12B1B97F4D1F60370FEF10105FA2FAAE0126114A169C64845D6126C9 PUSH1 0xE0 MSTORE CALLVALUE DUP1 ISZERO PUSH3 0x36 JUMPI PUSH1 0x0 DUP1 REVERT JUMPDEST POP PUSH1 0x40 MLOAD PUSH3 0x3533 CODESIZE SUB DUP1 PUSH3 0x3533 DUP4 CODECOPY DUP2 ADD PUSH1 0x40 DUP2 SWAP1 MSTORE PUSH3 0x59 SWAP2 PUSH3 0x39B JUMP JUMPDEST DUP3 DUP3 DUP2 DUP2 PUSH1 0x5 PUSH3 0x6B DUP4 DUP3 PUSH3 0x4BA JUMP JUMPDEST POP PUSH1 0x6 PUSH3 0x7A DUP3 DUP3 PUSH3 0x4BA JUMP JUMPDEST POP POP CHAINID PUSH1 0xA0 MSTORE POP ADDRESS PUSH1 0xC0 MSTORE PUSH3 0x8F PUSH3 0xB5 JUMP JUMPDEST PUSH1 0x80 MSTORE POP PUSH3 0xA0 SWAP1 POP DUP5 PUSH3 0x14C JUMP JUMPDEST PUSH3 0xAB DUP2 PUSH3 0x19E JUMP JUMPDEST POP POP POP POP PUSH3 0x586 JUMP JUMPDEST PUSH1 0x0 PUSH32 0x8B73C3C69BB8FE3D512ECC4CF759CC79239F7B179B0FFACAA9A75D522B39400F PUSH3 0xE2 PUSH3 0x21F JUMP JUMPDEST DUP1 MLOAD PUSH1 0x20 SWAP2 DUP3 ADD KECCAK256 PUSH1 0x40 DUP1 MLOAD SWAP3 DUP4 ADD SWAP4 SWAP1 SWAP4 MSTORE SWAP2 DUP2 ADD SWAP2 SWAP1 SWAP2 MSTORE PUSH32 0xC89EFDAA54C0F20C7ADF612882DF0950F5A951637E0307CDCB4C672F298B8BC6 PUSH1 0x60 DUP3 ADD MSTORE CHAINID PUSH1 0x80 DUP3 ADD MSTORE ADDRESS PUSH1 0xA0 DUP3 ADD MSTORE PUSH1 0xC0 ADD PUSH1 0x40 MLOAD PUSH1 0x20 DUP2 DUP4 SUB SUB DUP2 MSTORE SWAP1 PUSH1 0x40 MSTORE DUP1 MLOAD SWAP1 PUSH1 0x20 ADD KECCAK256 SWAP1 POP SWAP1 JUMP JUMPDEST PUSH1 0x1 DUP1 SLOAD PUSH1 0x1 PUSH1 0x1 PUSH1 0xA0 SHL SUB DUP4 DUP2 AND PUSH1 0x1 PUSH1 0x1 PUSH1 0xA0 SHL SUB NOT DUP4 AND DUP2 OR SWAP1 SWAP4 SSTORE PUSH1 0x40 MLOAD SWAP2 AND SWAP2 SWAP1 DUP3 SWAP1 PUSH32 0x8292FCE18FA69EDF4DB7B94EA2E58241DF0AE57F97E0A6C9B29067028BF92D76 SWAP1 PUSH1 0x0 SWAP1 LOG3 POP POP JUMP JUMPDEST PUSH1 0x1 PUSH1 0x1 PUSH1 0xA0 SHL SUB DUP2 AND PUSH3 0x1D5 JUMPI PUSH1 0x40 MLOAD PUSH4 0xF7CAC37 PUSH1 0xE2 SHL DUP2 MSTORE PUSH1 0x1 PUSH1 0x1 PUSH1 0xA0 SHL SUB DUP3 AND PUSH1 0x4 DUP3 ADD MSTORE PUSH1 0x24 ADD PUSH1 0x40 MLOAD DUP1 SWAP2 SUB SWAP1 REVERT JUMPDEST PUSH1 0x8 DUP1 SLOAD PUSH1 0x1 PUSH1 0x1 PUSH1 0xA0 SHL SUB NOT AND PUSH1 0x1 PUSH1 0x1 PUSH1 0xA0 SHL SUB DUP4 AND SWAP1 DUP2 OR SWAP1 SWAP2 SSTORE PUSH1 0x40 MLOAD PUSH32 0x299D17E95023F496E0FFC4909CFF1A61F74BB5EB18DE6F900F4155BFA1B3B333 SWAP1 PUSH1 0x0 SWAP1 LOG2 POP JUMP JUMPDEST PUSH1 0x60 PUSH1 0x5 DUP1 SLOAD PUSH3 0x230 SWAP1 PUSH3 0x42B JUMP JUMPDEST DUP1 PUSH1 0x1F ADD PUSH1 0x20 DUP1 SWAP2 DIV MUL PUSH1 0x20 ADD PUSH1 0x40 MLOAD SWAP1 DUP2 ADD PUSH1 0x40 MSTORE DUP1 SWAP3 SWAP2 SWAP1 DUP2 DUP2 MSTORE PUSH1 0x20 ADD DUP3 DUP1 SLOAD PUSH3 0x25E SWAP1 PUSH3 0x42B JUMP JUMPDEST DUP1 ISZERO PUSH3 0x2AF JUMPI DUP1 PUSH1 0x1F LT PUSH3 0x283 JUMPI PUSH2 0x100 DUP1 DUP4 SLOAD DIV MUL DUP4 MSTORE SWAP2 PUSH1 0x20 ADD SWAP2 PUSH3 0x2AF JUMP JUMPDEST DUP3 ADD SWAP2 SWAP1 PUSH1 0x0 MSTORE PUSH1 0x20 PUSH1 0x0 KECCAK256 SWAP1 JUMPDEST DUP2 SLOAD DUP2 MSTORE SWAP1 PUSH1 0x1 ADD SWAP1 PUSH1 0x20 ADD DUP1 DUP4 GT PUSH3 0x291 JUMPI DUP3 SWAP1 SUB PUSH1 0x1F AND DUP3 ADD SWAP2 JUMPDEST POP POP POP POP POP SWAP1 POP SWAP1 JUMP JUMPDEST DUP1 MLOAD PUSH1 0x1 PUSH1 0x1 PUSH1 0xA0 SHL SUB DUP2 AND DUP2 EQ PUSH3 0x2D1 JUMPI PUSH1 0x0 DUP1 REVERT JUMPDEST SWAP2 SWAP1 POP JUMP JUMPDEST PUSH4 0x4E487B71 PUSH1 0xE0 SHL PUSH1 0x0 MSTORE PUSH1 0x41 PUSH1 0x4 MSTORE PUSH1 0x24 PUSH1 0x0 REVERT JUMPDEST PUSH1 0x0 DUP3 PUSH1 0x1F DUP4 ADD SLT PUSH3 0x2FE JUMPI PUSH1 0x0 DUP1 REVERT JUMPDEST DUP2 MLOAD PUSH1 0x1 PUSH1 0x1 PUSH1 0x40 SHL SUB DUP1 DUP3 GT ISZERO PUSH3 0x31B JUMPI PUSH3 0x31B PUSH3 0x2D6 JUMP JUMPDEST PUSH1 0x40 MLOAD PUSH1 0x1F DUP4 ADD PUSH1 0x1F NOT SWAP1 DUP2 AND PUSH1 0x3F ADD AND DUP2 ADD SWAP1 DUP3 DUP3 GT DUP2 DUP4 LT OR ISZERO PUSH3 0x346 JUMPI PUSH3 0x346 PUSH3 0x2D6 JUMP JUMPDEST DUP2 PUSH1 0x40 MSTORE DUP4 DUP2 MSTORE PUSH1 0x20 SWAP3 POP DUP7 DUP4 DUP6 DUP9 ADD ADD GT ISZERO PUSH3 0x363 JUMPI PUSH1 0x0 DUP1 REVERT JUMPDEST PUSH1 0x0 SWAP2 POP JUMPDEST DUP4 DUP3 LT ISZERO PUSH3 0x387 JUMPI DUP6 DUP3 ADD DUP4 ADD MLOAD DUP2 DUP4 ADD DUP5 ADD MSTORE SWAP1 DUP3 ADD SWAP1 PUSH3 0x368 JUMP JUMPDEST PUSH1 0x0 SWAP4 DUP2 ADD SWAP1 SWAP3 ADD SWAP3 SWAP1 SWAP3 MSTORE SWAP5 SWAP4 POP POP POP POP JUMP JUMPDEST PUSH1 0x0 DUP1 PUSH1 0x0 DUP1 PUSH1 0x80 DUP6 DUP8 SUB SLT ISZERO PUSH3 0x3B2 JUMPI PUSH1 0x0 DUP1 REVERT JUMPDEST PUSH3 0x3BD DUP6 PUSH3 0x2B9 JUMP JUMPDEST PUSH1 0x20 DUP7 ADD MLOAD SWAP1 SWAP5 POP PUSH1 0x1 PUSH1 0x1 PUSH1 0x40 SHL SUB DUP1 DUP3 GT ISZERO PUSH3 0x3DB JUMPI PUSH1 0x0 DUP1 REVERT JUMPDEST PUSH3 0x3E9 DUP9 DUP4 DUP10 ADD PUSH3 0x2EC JUMP JUMPDEST SWAP5 POP PUSH1 0x40 DUP8 ADD MLOAD SWAP2 POP DUP1 DUP3 GT ISZERO PUSH3 0x400 JUMPI PUSH1 0x0 DUP1 REVERT JUMPDEST POP PUSH3 0x40F DUP8 DUP3 DUP9 ADD PUSH3 0x2EC JUMP JUMPDEST SWAP3 POP POP PUSH3 0x420 PUSH1 0x60 DUP7 ADD PUSH3 0x2B9 JUMP JUMPDEST SWAP1 POP SWAP3 SWAP6 SWAP2 SWAP5 POP SWAP3 POP JUMP JUMPDEST PUSH1 0x1 DUP2 DUP2 SHR SWAP1 DUP3 AND DUP1 PUSH3 0x440 JUMPI PUSH1 0x7F DUP3 AND SWAP2 POP JUMPDEST PUSH1 0x20 DUP3 LT DUP2 SUB PUSH3 0x461 JUMPI PUSH4 0x4E487B71 PUSH1 0xE0 SHL PUSH1 0x0 MSTORE PUSH1 0x22 PUSH1 0x4 MSTORE PUSH1 0x24 PUSH1 0x0 REVERT JUMPDEST POP SWAP2 SWAP1 POP JUMP JUMPDEST PUSH1 0x1F DUP3 GT ISZERO PUSH3 0x4B5 JUMPI PUSH1 0x0 DUP2 DUP2 MSTORE PUSH1 0x20 DUP2 KECCAK256 PUSH1 0x1F DUP6 ADD PUSH1 0x5 SHR DUP2 ADD PUSH1 0x20 DUP7 LT ISZERO PUSH3 0x490 JUMPI POP DUP1 JUMPDEST PUSH1 0x1F DUP6 ADD PUSH1 0x5 SHR DUP3 ADD SWAP2 POP JUMPDEST DUP2 DUP2 LT ISZERO PUSH3 0x4B1 JUMPI DUP3 DUP2 SSTORE PUSH1 0x1 ADD PUSH3 0x49C JUMP JUMPDEST POP POP POP JUMPDEST POP POP POP JUMP JUMPDEST DUP2 MLOAD PUSH1 0x1 PUSH1 0x1 PUSH1 0x40 SHL SUB DUP2 GT ISZERO PUSH3 0x4D6 JUMPI PUSH3 0x4D6 PUSH3 0x2D6 JUMP JUMPDEST PUSH3 0x4EE DUP2 PUSH3 0x4E7 DUP5 SLOAD PUSH3 0x42B JUMP JUMPDEST DUP5 PUSH3 0x467 JUMP JUMPDEST PUSH1 0x20 DUP1 PUSH1 0x1F DUP4 GT PUSH1 0x1 DUP2 EQ PUSH3 0x526 JUMPI PUSH1 0x0 DUP5 ISZERO PUSH3 0x50D JUMPI POP DUP6 DUP4 ADD MLOAD JUMPDEST PUSH1 0x0 NOT PUSH1 0x3 DUP7 SWAP1 SHL SHR NOT AND PUSH1 0x1 DUP6 SWAP1 SHL OR DUP6 SSTORE PUSH3 0x4B1 JUMP JUMPDEST PUSH1 0x0 DUP6 DUP2 MSTORE PUSH1 0x20 DUP2 KECCAK256 PUSH1 0x1F NOT DUP7 AND SWAP2 JUMPDEST DUP3 DUP2 LT ISZERO PUSH3 0x557 JUMPI DUP9 DUP7 ADD MLOAD DUP3 SSTORE SWAP5 DUP5 ADD SWAP5 PUSH1 0x1 SWAP1 SWAP2 ADD SWAP1 DUP5 ADD PUSH3 0x536 JUMP JUMPDEST POP DUP6 DUP3 LT ISZERO PUSH3 0x576 JUMPI DUP8 DUP6 ADD MLOAD PUSH1 0x0 NOT PUSH1 0x3 DUP9 SWAP1 SHL PUSH1 0xF8 AND SHR NOT AND DUP2 SSTORE JUMPDEST POP POP POP POP POP PUSH1 0x1 SWAP1 DUP2 SHL ADD SWAP1 SSTORE POP JUMP JUMPDEST PUSH1 0x80 MLOAD PUSH1 0xA0 MLOAD PUSH1 0xC0 MLOAD PUSH1 0xE0 MLOAD PUSH2 0x2F73 PUSH3 0x5C0 PUSH1 0x0 CODECOPY PUSH1 0x0 PUSH2 0xE5F ADD MSTORE PUSH1 0x0 PUSH2 0x696 ADD MSTORE PUSH1 0x0 PUSH2 0x6C0 ADD MSTORE PUSH1 0x0 PUSH2 0x6EA ADD MSTORE PUSH2 0x2F73 PUSH1 0x0 RETURN INVALID PUSH1 0x80 PUSH1 0x40 MSTORE PUSH1 0x4 CALLDATASIZE LT PUSH2 0x1B7 JUMPI PUSH1 0x0 CALLDATALOAD PUSH1 0xE0 SHR DUP1 PUSH4 0x79CC6790 GT PUSH2 0xEC JUMPI DUP1 PUSH4 0xA9059CBB GT PUSH2 0x8A JUMPI DUP1 PUSH4 0xD637ED59 GT PUSH2 0x64 JUMPI DUP1 PUSH4 0xD637ED59 EQ PUSH2 0x508 JUMPI DUP1 PUSH4 0xDD62ED3E EQ PUSH2 0x531 JUMPI DUP1 PUSH4 0xE8A3D485 EQ PUSH2 0x551 JUMPI DUP1 PUSH4 0xEEC8897C EQ PUSH2 0x566 JUMPI PUSH1 0x0 DUP1 REVERT JUMPDEST DUP1 PUSH4 0xA9059CBB EQ PUSH2 0x49B JUMPI DUP1 PUSH4 0xAC9650D8 EQ PUSH2 0x4BB JUMPI DUP1 PUSH4 0xD505ACCF EQ PUSH2 0x4E8 JUMPI PUSH1 0x0 DUP1 REVERT JUMPDEST DUP1 PUSH4 0x8DA5CB5B GT PUSH2 0xC6 JUMPI DUP1 PUSH4 0x8DA5CB5B EQ PUSH2 0x428 JUMPI DUP1 PUSH4 0x938E3D7B EQ PUSH2 0x446 JUMPI DUP1 PUSH4 0x95D89B41 EQ PUSH2 0x466 JUMPI DUP1 PUSH4 0xA457C2D7 EQ PUSH2 0x47B JUMPI PUSH1 0x0 DUP1 REVERT JUMPDEST DUP1 PUSH4 0x79CC6790 EQ PUSH2 0x3D5 JUMPI DUP1 PUSH4 0x7ECEBE00 EQ PUSH2 0x3F5 JUMPI DUP1 PUSH4 0x84BB1E42 EQ PUSH2 0x415 JUMPI PUSH1 0x0 DUP1 REVERT JUMPDEST DUP1 PUSH4 0x35B65E1F GT PUSH2 0x159 JUMPI DUP1 PUSH4 0x426CFAF3 GT PUSH2 0x133 JUMPI DUP1 PUSH4 0x426CFAF3 EQ PUSH2 0x33F JUMPI DUP1 PUSH4 0x42966C68 EQ PUSH2 0x35F JUMPI DUP1 PUSH4 0x6F4F2837 EQ PUSH2 0x37F JUMPI DUP1 PUSH4 0x70A08231 EQ PUSH2 0x39F JUMPI PUSH1 0x0 DUP1 REVERT JUMPDEST DUP1 PUSH4 0x35B65E1F EQ PUSH2 0x2C6 JUMPI DUP1 PUSH4 0x3644E515 EQ PUSH2 0x30A JUMPI DUP1 PUSH4 0x39509351 EQ PUSH2 0x31F JUMPI PUSH1 0x0 DUP1 REVERT JUMPDEST DUP1 PUSH4 0x13AF4035 GT PUSH2 0x195 JUMPI DUP1 PUSH4 0x13AF4035 EQ PUSH2 0x249 JUMPI DUP1 PUSH4 0x18160DDD EQ PUSH2 0x26B JUMPI DUP1 PUSH4 0x23B872DD EQ PUSH2 0x28A JUMPI DUP1 PUSH4 0x313CE567 EQ PUSH2 0x2AA JUMPI PUSH1 0x0 DUP1 REVERT JUMPDEST DUP1 PUSH4 0x6FDDE03 EQ PUSH2 0x1BC JUMPI DUP1 PUSH4 0x79FE40E EQ PUSH2 0x1E7 JUMPI DUP1 PUSH4 0x95EA7B3 EQ PUSH2 0x219 JUMPI JUMPDEST PUSH1 0x0 DUP1 REVERT JUMPDEST CALLVALUE DUP1 ISZERO PUSH2 0x1C8 JUMPI PUSH1 0x0 DUP1 REVERT JUMPDEST POP PUSH2 0x1D1 PUSH2 0x586 JUMP JUMPDEST PUSH1 0x40 MLOAD PUSH2 0x1DE SWAP2 SWAP1 PUSH2 0x2606 JUMP JUMPDEST PUSH1 0x40 MLOAD DUP1 SWAP2 SUB SWAP1 RETURN JUMPDEST CALLVALUE DUP1 ISZERO PUSH2 0x1F3 JUMPI PUSH1 0x0 DUP1 REVERT JUMPDEST POP PUSH1 0x8 SLOAD PUSH1 0x1 PUSH1 0x1 PUSH1 0xA0 SHL SUB AND JUMPDEST PUSH1 0x40 MLOAD PUSH1 0x1 PUSH1 0x1 PUSH1 0xA0 SHL SUB SWAP1 SWAP2 AND DUP2 MSTORE PUSH1 0x20 ADD PUSH2 0x1DE JUMP JUMPDEST CALLVALUE DUP1 ISZERO PUSH2 0x225 JUMPI PUSH1 0x0 DUP1 REVERT JUMPDEST POP PUSH2 0x239 PUSH2 0x234 CALLDATASIZE PUSH1 0x4 PUSH2 0x2635 JUMP JUMPDEST PUSH2 0x618 JUMP JUMPDEST PUSH1 0x40 MLOAD SWAP1 ISZERO ISZERO DUP2 MSTORE PUSH1 0x20 ADD PUSH2 0x1DE JUMP JUMPDEST CALLVALUE DUP1 ISZERO PUSH2 0x255 JUMPI PUSH1 0x0 DUP1 REVERT JUMPDEST POP PUSH2 0x269 PUSH2 0x264 CALLDATASIZE PUSH1 0x4 PUSH2 0x265F JUMP JUMPDEST PUSH2 0x632 JUMP JUMPDEST STOP JUMPDEST CALLVALUE DUP1 ISZERO PUSH2 0x277 JUMPI PUSH1 0x0 DUP1 REVERT JUMPDEST POP PUSH1 0x4 SLOAD JUMPDEST PUSH1 0x40 MLOAD SWAP1 DUP2 MSTORE PUSH1 0x20 ADD PUSH2 0x1DE JUMP JUMPDEST CALLVALUE DUP1 ISZERO PUSH2 0x296 JUMPI PUSH1 0x0 DUP1 REVERT JUMPDEST POP PUSH2 0x239 PUSH2 0x2A5 CALLDATASIZE PUSH1 0x4 PUSH2 0x267A JUMP JUMPDEST PUSH2 0x663 JUMP JUMPDEST CALLVALUE DUP1 ISZERO PUSH2 0x2B6 JUMPI PUSH1 0x0 DUP1 REVERT JUMPDEST POP PUSH1 0x40 MLOAD PUSH1 0x12 DUP2 MSTORE PUSH1 0x20 ADD PUSH2 0x1DE JUMP JUMPDEST CALLVALUE DUP1 ISZERO PUSH2 0x2D2 JUMPI PUSH1 0x0 DUP1 REVERT JUMPDEST POP PUSH2 0x27C PUSH2 0x2E1 CALLDATASIZE PUSH1 0x4 PUSH2 0x265F JUMP JUMPDEST PUSH1 0x11 SLOAD PUSH1 0x0 SWAP1 DUP2 MSTORE PUSH1 0x12 PUSH1 0x20 SWAP1 DUP2 MSTORE PUSH1 0x40 DUP1 DUP4 KECCAK256 PUSH1 0x1 PUSH1 0x1 PUSH1 0xA0 SHL SUB SWAP1 SWAP5 AND DUP4 MSTORE SWAP3 SWAP1 MSTORE KECCAK256 SLOAD SWAP1 JUMP JUMPDEST CALLVALUE DUP1 ISZERO PUSH2 0x316 JUMPI PUSH1 0x0 DUP1 REVERT JUMPDEST POP PUSH2 0x27C PUSH2 0x689 JUMP JUMPDEST CALLVALUE DUP1 ISZERO PUSH2 0x32B JUMPI PUSH1 0x0 DUP1 REVERT JUMPDEST POP PUSH2 0x239 PUSH2 0x33A CALLDATASIZE PUSH1 0x4 PUSH2 0x2635 JUMP JUMPDEST PUSH2 0x719 JUMP JUMPDEST CALLVALUE DUP1 ISZERO PUSH2 0x34B JUMPI PUSH1 0x0 DUP1 REVERT JUMPDEST POP PUSH2 0x269 PUSH2 0x35A CALLDATASIZE PUSH1 0x4 PUSH2 0x26C4 JUMP JUMPDEST PUSH2 0x758 JUMP JUMPDEST CALLVALUE DUP1 ISZERO PUSH2 0x36B JUMPI PUSH1 0x0 DUP1 REVERT JUMPDEST POP PUSH2 0x269 PUSH2 0x37A CALLDATASIZE PUSH1 0x4 PUSH2 0x271C JUMP JUMPDEST PUSH2 0x941 JUMP JUMPDEST CALLVALUE DUP1 ISZERO PUSH2 0x38B JUMPI PUSH1 0x0 DUP1 REVERT JUMPDEST POP PUSH2 0x269 PUSH2 0x39A CALLDATASIZE PUSH1 0x4 PUSH2 0x265F JUMP JUMPDEST PUSH2 0x9A4 JUMP JUMPDEST CALLVALUE DUP1 ISZERO PUSH2 0x3AB JUMPI PUSH1 0x0 DUP1 REVERT JUMPDEST POP PUSH2 0x27C PUSH2 0x3BA CALLDATASIZE PUSH1 0x4 PUSH2 0x265F JUMP JUMPDEST PUSH1 0x1 PUSH1 0x1 PUSH1 0xA0 SHL SUB AND PUSH1 0x0 SWAP1 DUP2 MSTORE PUSH1 0x2 PUSH1 0x20 MSTORE PUSH1 0x40 SWAP1 KECCAK256 SLOAD SWAP1 JUMP JUMPDEST CALLVALUE DUP1 ISZERO PUSH2 0x3E1 JUMPI PUSH1 0x0 DUP1 REVERT JUMPDEST POP PUSH2 0x269 PUSH2 0x3F0 CALLDATASIZE PUSH1 0x4 PUSH2 0x2635 JUMP JUMPDEST PUSH2 0x9D2 JUMP JUMPDEST CALLVALUE DUP1 ISZERO PUSH2 0x401 JUMPI PUSH1 0x0 DUP1 REVERT JUMPDEST POP PUSH2 0x27C PUSH2 0x410 CALLDATASIZE PUSH1 0x4 PUSH2 0x265F JUMP JUMPDEST PUSH2 0xAC8 JUMP JUMPDEST PUSH2 0x269 PUSH2 0x423 CALLDATASIZE PUSH1 0x4 PUSH2 0x27D3 JUMP JUMPDEST PUSH2 0xAE6 JUMP JUMPDEST CALLVALUE DUP1 ISZERO PUSH2 0x434 JUMPI PUSH1 0x0 DUP1 REVERT JUMPDEST POP PUSH1 0x1 SLOAD PUSH1 0x1 PUSH1 0x1 PUSH1 0xA0 SHL SUB AND PUSH2 0x201 JUMP JUMPDEST CALLVALUE DUP1 ISZERO PUSH2 0x452 JUMPI PUSH1 0x0 DUP1 REVERT JUMPDEST POP PUSH2 0x269 PUSH2 0x461 CALLDATASIZE PUSH1 0x4 PUSH2 0x287E JUMP JUMPDEST PUSH2 0xBB3 JUMP JUMPDEST CALLVALUE DUP1 ISZERO PUSH2 0x472 JUMPI PUSH1 0x0 DUP1 REVERT JUMPDEST POP PUSH2 0x1D1 PUSH2 0xBE1 JUMP JUMPDEST CALLVALUE DUP1 ISZERO PUSH2 0x487 JUMPI PUSH1 0x0 DUP1 REVERT JUMPDEST POP PUSH2 0x239 PUSH2 0x496 CALLDATASIZE PUSH1 0x4 PUSH2 0x2635 JUMP JUMPDEST PUSH2 0xBF0 JUMP JUMPDEST CALLVALUE DUP1 ISZERO PUSH2 0x4A7 JUMPI PUSH1 0x0 DUP1 REVERT JUMPDEST POP PUSH2 0x239 PUSH2 0x4B6 CALLDATASIZE PUSH1 0x4 PUSH2 0x2635 JUMP JUMPDEST PUSH2 0xC8D JUMP JUMPDEST CALLVALUE DUP1 ISZERO PUSH2 0x4C7 JUMPI PUSH1 0x0 DUP1 REVERT JUMPDEST POP PUSH2 0x4DB PUSH2 0x4D6 CALLDATASIZE PUSH1 0x4 PUSH2 0x28C7 JUMP JUMPDEST PUSH2 0xC9B JUMP JUMPDEST PUSH1 0x40 MLOAD PUSH2 0x1DE SWAP2 SWAP1 PUSH2 0x293C JUMP JUMPDEST CALLVALUE DUP1 ISZERO PUSH2 0x4F4 JUMPI PUSH1 0x0 DUP1 REVERT JUMPDEST POP PUSH2 0x269 PUSH2 0x503 CALLDATASIZE PUSH1 0x4 PUSH2 0x299E JUMP JUMPDEST PUSH2 0xE0B JUMP JUMPDEST CALLVALUE DUP1 ISZERO PUSH2 0x514 JUMPI PUSH1 0x0 DUP1 REVERT JUMPDEST POP PUSH2 0x51D PUSH2 0xF91 JUMP JUMPDEST PUSH1 0x40 MLOAD PUSH2 0x1DE SWAP9 SWAP8 SWAP7 SWAP6 SWAP5 SWAP4 SWAP3 SWAP2 SWAP1 PUSH2 0x2A11 JUMP JUMPDEST CALLVALUE DUP1 ISZERO PUSH2 0x53D JUMPI PUSH1 0x0 DUP1 REVERT JUMPDEST POP PUSH2 0x27C PUSH2 0x54C CALLDATASIZE PUSH1 0x4 PUSH2 0x2A66 JUMP JUMPDEST PUSH2 0x1050 JUMP JUMPDEST CALLVALUE DUP1 ISZERO PUSH2 0x55D JUMPI PUSH1 0x0 DUP1 REVERT JUMPDEST POP PUSH2 0x1D1 PUSH2 0x107B JUMP JUMPDEST CALLVALUE DUP1 ISZERO PUSH2 0x572 JUMPI PUSH1 0x0 DUP1 REVERT JUMPDEST POP PUSH2 0x239 PUSH2 0x581 CALLDATASIZE PUSH1 0x4 PUSH2 0x2A99 JUMP JUMPDEST PUSH2 0x1109 JUMP JUMPDEST PUSH1 0x60 PUSH1 0x5 DUP1 SLOAD PUSH2 0x595 SWAP1 PUSH2 0x2B0B JUMP JUMPDEST DUP1 PUSH1 0x1F ADD PUSH1 0x20 DUP1 SWAP2 DIV MUL PUSH1 0x20 ADD PUSH1 0x40 MLOAD SWAP1 DUP2 ADD PUSH1 0x40 MSTORE DUP1 SWAP3 SWAP2 SWAP1 DUP2 DUP2 MSTORE PUSH1 0x20 ADD DUP3 DUP1 SLOAD PUSH2 0x5C1 SWAP1 PUSH2 0x2B0B JUMP JUMPDEST DUP1 ISZERO PUSH2 0x60E JUMPI DUP1 PUSH1 0x1F LT PUSH2 0x5E3 JUMPI PUSH2 0x100 DUP1 DUP4 SLOAD DIV MUL DUP4 MSTORE SWAP2 PUSH1 0x20 ADD SWAP2 PUSH2 0x60E JUMP JUMPDEST DUP3 ADD SWAP2 SWAP1 PUSH1 0x0 MSTORE PUSH1 0x20 PUSH1 0x0 KECCAK256 SWAP1 JUMPDEST DUP2 SLOAD DUP2 MSTORE SWAP1 PUSH1 0x1 ADD SWAP1 PUSH1 0x20 ADD DUP1 DUP4 GT PUSH2 0x5F1 JUMPI DUP3 SWAP1 SUB PUSH1 0x1F AND DUP3 ADD SWAP2 JUMPDEST POP POP POP POP POP SWAP1 POP SWAP1 JUMP JUMPDEST PUSH1 0x0 CALLER PUSH2 0x626 DUP2 DUP6 DUP6 PUSH2 0x146D JUMP JUMPDEST PUSH1 0x1 SWAP2 POP POP JUMPDEST SWAP3 SWAP2 POP POP JUMP JUMPDEST PUSH2 0x63A PUSH2 0x1591 JUMP JUMPDEST PUSH2 0x657 JUMPI PUSH1 0x40 MLOAD PUSH4 0x16CCB9CB PUSH1 0xE1 SHL DUP2 MSTORE PUSH1 0x4 ADD PUSH1 0x40 MLOAD DUP1 SWAP2 SUB SWAP1 REVERT JUMPDEST PUSH2 0x660 DUP2 PUSH2 0x15BE JUMP JUMPDEST POP JUMP JUMPDEST PUSH1 0x0 CALLER PUSH2 0x671 DUP6 DUP3 DUP6 PUSH2 0x1610 JUMP JUMPDEST PUSH2 0x67C DUP6 DUP6 DUP6 PUSH2 0x168A JUMP JUMPDEST PUSH1 0x1 SWAP2 POP POP JUMPDEST SWAP4 SWAP3 POP POP POP JUMP JUMPDEST PUSH1 0x0 ADDRESS PUSH1 0x1 PUSH1 0x1 PUSH1 0xA0 SHL SUB PUSH32 0x0 AND EQ DUP1 ISZERO PUSH2 0x6E2 JUMPI POP PUSH32 0x0 CHAINID EQ JUMPDEST ISZERO PUSH2 0x70C JUMPI POP PUSH32 0x0 SWAP1 JUMP JUMPDEST PUSH2 0x714 PUSH2 0x1858 JUMP JUMPDEST SWAP1 POP SWAP1 JUMP JUMPDEST CALLER PUSH1 0x0 DUP2 DUP2 MSTORE PUSH1 0x3 PUSH1 0x20 SWAP1 DUP2 MSTORE PUSH1 0x40 DUP1 DUP4 KECCAK256 PUSH1 0x1 PUSH1 0x1 PUSH1 0xA0 SHL SUB DUP8 AND DUP5 MSTORE SWAP1 SWAP2 MSTORE DUP2 KECCAK256 SLOAD SWAP1 SWAP2 SWAP1 PUSH2 0x626 SWAP1 DUP3 SWAP1 DUP7 SWAP1 PUSH2 0x753 SWAP1 DUP8 SWAP1 PUSH2 0x2B55 JUMP JUMPDEST PUSH2 0x146D JUMP JUMPDEST PUSH2 0x760 PUSH2 0x1591 JUMP JUMPDEST PUSH2 0x77D JUMPI PUSH1 0x40 MLOAD PUSH4 0x56C4EF51 PUSH1 0xE0 SHL DUP2 MSTORE PUSH1 0x4 ADD PUSH1 0x40 MLOAD DUP1 SWAP2 SUB SWAP1 REVERT JUMPDEST PUSH1 0x11 SLOAD PUSH1 0xB SLOAD DUP3 ISZERO PUSH2 0x7C7 JUMPI POP PUSH1 0x0 CALLER PUSH1 0x40 MLOAD PUSH1 0x60 SWAP2 SWAP1 SWAP2 SHL PUSH1 0x1 PUSH1 0x1 PUSH1 0x60 SHL SUB NOT AND PUSH1 0x20 DUP3 ADD MSTORE NUMBER PUSH1 0x34 DUP3 ADD MSTORE PUSH1 0x54 ADD PUSH1 0x40 MLOAD PUSH1 0x20 DUP2 DUP4 SUB SUB DUP2 MSTORE SWAP1 PUSH1 0x40 MSTORE DUP1 MLOAD SWAP1 PUSH1 0x20 ADD KECCAK256 SWAP2 POP JUMPDEST DUP4 PUSH1 0x20 ADD CALLDATALOAD DUP2 GT ISZERO PUSH2 0x7EC JUMPI PUSH1 0x40 MLOAD PUSH4 0x32B539F PUSH1 0xE1 SHL DUP2 MSTORE PUSH1 0x4 ADD PUSH1 0x40 MLOAD DUP1 SWAP2 SUB SWAP1 REVERT JUMPDEST PUSH1 0x40 MLOAD DUP1 PUSH2 0x100 ADD PUSH1 0x40 MSTORE DUP1 DUP6 PUSH1 0x0 ADD CALLDATALOAD DUP2 MSTORE PUSH1 0x20 ADD DUP6 PUSH1 0x20 ADD CALLDATALOAD DUP2 MSTORE PUSH1 0x20 ADD DUP3 DUP2 MSTORE PUSH1 0x20 ADD DUP6 PUSH1 0x60 ADD CALLDATALOAD DUP2 MSTORE PUSH1 0x20 ADD DUP6 PUSH1 0x80 ADD CALLDATALOAD DUP2 MSTORE PUSH1 0x20 ADD DUP6 PUSH1 0xA0 ADD CALLDATALOAD DUP2 MSTORE PUSH1 0x20 ADD DUP6 PUSH1 0xC0 ADD PUSH1 0x20 DUP2 ADD SWAP1 PUSH2 0x843 SWAP2 SWAP1 PUSH2 0x265F JUMP JUMPDEST PUSH1 0x1 PUSH1 0x1 PUSH1 0xA0 SHL SUB AND DUP2 MSTORE PUSH1 0x20 ADD PUSH2 0x85E PUSH1 0xE0 DUP8 ADD DUP8 PUSH2 0x2B68 JUMP JUMPDEST DUP1 DUP1 PUSH1 0x1F ADD PUSH1 0x20 DUP1 SWAP2 DIV MUL PUSH1 0x20 ADD PUSH1 0x40 MLOAD SWAP1 DUP2 ADD PUSH1 0x40 MSTORE DUP1 SWAP4 SWAP3 SWAP2 SWAP1 DUP2 DUP2 MSTORE PUSH1 0x20 ADD DUP4 DUP4 DUP1 DUP3 DUP5 CALLDATACOPY PUSH1 0x0 SWAP3 ADD SWAP2 SWAP1 SWAP2 MSTORE POP POP POP SWAP2 MSTORE POP DUP1 MLOAD PUSH1 0x9 SWAP1 DUP2 SSTORE PUSH1 0x20 DUP3 ADD MLOAD PUSH1 0xA SSTORE PUSH1 0x40 DUP3 ADD MLOAD PUSH1 0xB SSTORE PUSH1 0x60 DUP3 ADD MLOAD PUSH1 0xC SSTORE PUSH1 0x80 DUP3 ADD MLOAD PUSH1 0xD SSTORE PUSH1 0xA0 DUP3 ADD MLOAD PUSH1 0xE SSTORE PUSH1 0xC0 DUP3 ADD MLOAD PUSH1 0xF DUP1 SLOAD PUSH1 0x1 PUSH1 0x1 PUSH1 0xA0 SHL SUB NOT AND PUSH1 0x1 PUSH1 0x1 PUSH1 0xA0 SHL SUB SWAP1 SWAP3 AND SWAP2 SWAP1 SWAP2 OR SWAP1 SSTORE PUSH1 0xE0 DUP3 ADD MLOAD PUSH1 0x10 SWAP1 PUSH2 0x8F9 SWAP1 DUP3 PUSH2 0x2BFC JUMP JUMPDEST POP POP POP PUSH1 0x11 DUP3 SWAP1 SSTORE PUSH1 0x40 MLOAD PUSH32 0x6DAB9D7D05D468100139089B2516CB8FF286C3972FF070D3B509E371F0D0D4B8 SWAP1 PUSH2 0x933 SWAP1 DUP7 SWAP1 DUP7 SWAP1 PUSH2 0x2CE5 JUMP JUMPDEST PUSH1 0x40 MLOAD DUP1 SWAP2 SUB SWAP1 LOG1 POP POP POP POP JUMP JUMPDEST CALLER PUSH1 0x0 SWAP1 DUP2 MSTORE PUSH1 0x2 PUSH1 0x20 MSTORE PUSH1 0x40 SWAP1 KECCAK256 SLOAD DUP2 GT ISZERO PUSH2 0x99A JUMPI PUSH1 0x40 MLOAD PUSH3 0x461BCD PUSH1 0xE5 SHL DUP2 MSTORE PUSH1 0x20 PUSH1 0x4 DUP3 ADD MSTORE PUSH1 0x12 PUSH1 0x24 DUP3 ADD MSTORE PUSH18 0x6E6F7420656E6F7567682062616C616E6365 PUSH1 0x70 SHL PUSH1 0x44 DUP3 ADD MSTORE PUSH1 0x64 ADD JUMPDEST PUSH1 0x40 MLOAD DUP1 SWAP2 SUB SWAP1 REVERT JUMPDEST PUSH2 0x660 CALLER DUP3 PUSH2 0x18ED JUMP JUMPDEST PUSH2 0x9AC PUSH2 0x1591 JUMP JUMPDEST PUSH2 0x9C9 JUMPI PUSH1 0x40 MLOAD PUSH4 0x1C98210F PUSH1 0xE2 SHL DUP2 MSTORE PUSH1 0x4 ADD PUSH1 0x40 MLOAD DUP1 SWAP2 SUB SWAP1 REVERT JUMPDEST PUSH2 0x660 DUP2 PUSH2 0x1A3B JUMP JUMPDEST PUSH2 0x9DA PUSH2 0x1591 JUMP JUMPDEST PUSH2 0xA26 JUMPI PUSH1 0x40 MLOAD PUSH3 0x461BCD PUSH1 0xE5 SHL DUP2 MSTORE PUSH1 0x20 PUSH1 0x4 DUP3 ADD MSTORE PUSH1 0x17 PUSH1 0x24 DUP3 ADD MSTORE PUSH32 0x4E6F7420617574686F72697A656420746F206275726E2E000000000000000000 PUSH1 0x44 DUP3 ADD MSTORE PUSH1 0x64 ADD PUSH2 0x991 JUMP JUMPDEST DUP1 PUSH2 0xA46 DUP4 PUSH1 0x1 PUSH1 0x1 PUSH1 0xA0 SHL SUB AND PUSH1 0x0 SWAP1 DUP2 MSTORE PUSH1 0x2 PUSH1 0x20 MSTORE PUSH1 0x40 SWAP1 KECCAK256 SLOAD SWAP1 JUMP JUMPDEST LT ISZERO PUSH2 0xA89 JUMPI PUSH1 0x40 MLOAD PUSH3 0x461BCD PUSH1 0xE5 SHL DUP2 MSTORE PUSH1 0x20 PUSH1 0x4 DUP3 ADD MSTORE PUSH1 0x12 PUSH1 0x24 DUP3 ADD MSTORE PUSH18 0x6E6F7420656E6F7567682062616C616E6365 PUSH1 0x70 SHL PUSH1 0x44 DUP3 ADD MSTORE PUSH1 0x64 ADD PUSH2 0x991 JUMP JUMPDEST PUSH1 0x0 DUP2 PUSH2 0xA96 DUP5 CALLER PUSH2 0x1050 JUMP JUMPDEST PUSH2 0xAA0 SWAP2 SWAP1 PUSH2 0x2DB3 JUMP JUMPDEST SWAP1 POP PUSH2 0xAAE DUP4 CALLER PUSH1 0x0 PUSH2 0x146D JUMP JUMPDEST PUSH2 0xAB9 DUP4 CALLER DUP4 PUSH2 0x146D JUMP JUMPDEST PUSH2 0xAC3 DUP4 DUP4 PUSH2 0x18ED JUMP JUMPDEST POP POP POP JUMP JUMPDEST PUSH1 0x1 PUSH1 0x1 PUSH1 0xA0 SHL SUB DUP2 AND PUSH1 0x0 SWAP1 DUP2 MSTORE PUSH1 0x7 PUSH1 0x20 MSTORE PUSH1 0x40 DUP2 KECCAK256 SLOAD PUSH2 0x62C JUMP JUMPDEST PUSH1 0x11 SLOAD PUSH2 0xAF6 CALLER DUP8 DUP8 DUP8 DUP8 PUSH2 0x1109 JUMP JUMPDEST POP DUP6 PUSH1 0x9 PUSH1 0x2 ADD PUSH1 0x0 DUP3 DUP3 SLOAD PUSH2 0xB0C SWAP2 SWAP1 PUSH2 0x2B55 JUMP JUMPDEST SWAP1 SWAP2 SSTORE POP POP PUSH1 0x0 DUP2 DUP2 MSTORE PUSH1 0x12 PUSH1 0x20 SWAP1 DUP2 MSTORE PUSH1 0x40 DUP1 DUP4 KECCAK256 CALLER DUP5 MSTORE SWAP1 SWAP2 MSTORE DUP2 KECCAK256 DUP1 SLOAD DUP9 SWAP3 SWAP1 PUSH2 0xB3A SWAP1 DUP5 SWAP1 PUSH2 0x2B55 JUMP JUMPDEST SWAP1 SWAP2 SSTORE POP PUSH2 0xB4D SWAP1 POP PUSH1 0x0 DUP8 DUP8 DUP8 PUSH2 0x1ABF JUMP JUMPDEST PUSH1 0x0 PUSH2 0xB59 DUP9 DUP9 PUSH2 0x1C17 JUMP JUMPDEST SWAP1 POP DUP1 PUSH1 0x1 PUSH1 0x1 PUSH1 0xA0 SHL SUB DUP10 AND CALLER PUSH1 0x1 PUSH1 0x1 PUSH1 0xA0 SHL SUB AND PUSH32 0xFF097C7D8B1957A4FF09EF1361B5FB54DCEDE3941BA836D0BEB9D10BEC725DE6 DUP11 PUSH1 0x40 MLOAD PUSH2 0xBA1 SWAP2 DUP2 MSTORE PUSH1 0x20 ADD SWAP1 JUMP JUMPDEST PUSH1 0x40 MLOAD DUP1 SWAP2 SUB SWAP1 LOG4 POP POP POP POP POP POP POP POP JUMP JUMPDEST PUSH2 0xBBB PUSH2 0x1591 JUMP JUMPDEST PUSH2 0xBD8 JUMPI PUSH1 0x40 MLOAD PUSH4 0x9F7F0925 PUSH1 0xE0 SHL DUP2 MSTORE PUSH1 0x4 ADD PUSH1 0x40 MLOAD DUP1 SWAP2 SUB SWAP1 REVERT JUMPDEST PUSH2 0x660 DUP2 PUSH2 0x1C2C JUMP JUMPDEST PUSH1 0x60 PUSH1 0x6 DUP1 SLOAD PUSH2 0x595 SWAP1 PUSH2 0x2B0B JUMP JUMPDEST CALLER PUSH1 0x0 DUP2 DUP2 MSTORE PUSH1 0x3 PUSH1 0x20 SWAP1 DUP2 MSTORE PUSH1 0x40 DUP1 DUP4 KECCAK256 PUSH1 0x1 PUSH1 0x1 PUSH1 0xA0 SHL SUB DUP8 AND DUP5 MSTORE SWAP1 SWAP2 MSTORE DUP2 KECCAK256 SLOAD SWAP1 SWAP2 SWAP1 DUP4 DUP2 LT ISZERO PUSH2 0xC75 JUMPI PUSH1 0x40 MLOAD PUSH3 0x461BCD PUSH1 0xE5 SHL DUP2 MSTORE PUSH1 0x20 PUSH1 0x4 DUP3 ADD MSTORE PUSH1 0x25 PUSH1 0x24 DUP3 ADD MSTORE PUSH32 0x45524332303A2064656372656173656420616C6C6F77616E63652062656C6F77 PUSH1 0x44 DUP3 ADD MSTORE PUSH5 0x207A65726F PUSH1 0xD8 SHL PUSH1 0x64 DUP3 ADD MSTORE PUSH1 0x84 ADD PUSH2 0x991 JUMP JUMPDEST PUSH2 0xC82 DUP3 DUP7 DUP7 DUP5 SUB PUSH2 0x146D JUMP JUMPDEST POP PUSH1 0x1 SWAP5 SWAP4 POP POP POP POP JUMP JUMPDEST PUSH1 0x0 CALLER PUSH2 0x626 DUP2 DUP6 DUP6 PUSH2 0x168A JUMP JUMPDEST PUSH1 0x60 DUP2 PUSH8 0xFFFFFFFFFFFFFFFF DUP2 GT ISZERO PUSH2 0xCB6 JUMPI PUSH2 0xCB6 PUSH2 0x2747 JUMP JUMPDEST PUSH1 0x40 MLOAD SWAP1 DUP1 DUP3 MSTORE DUP1 PUSH1 0x20 MUL PUSH1 0x20 ADD DUP3 ADD PUSH1 0x40 MSTORE DUP1 ISZERO PUSH2 0xCE9 JUMPI DUP2 PUSH1 0x20 ADD JUMPDEST PUSH1 0x60 DUP2 MSTORE PUSH1 0x20 ADD SWAP1 PUSH1 0x1 SWAP1 SUB SWAP1 DUP2 PUSH2 0xCD4 JUMPI SWAP1 POP JUMPDEST POP SWAP1 POP CALLER PUSH1 0x0 DUP1 JUMPDEST DUP5 DUP2 LT ISZERO PUSH2 0xE02 JUMPI DUP2 ISZERO PUSH2 0xD70 JUMPI PUSH2 0xD4E ADDRESS DUP8 DUP8 DUP5 DUP2 DUP2 LT PUSH2 0xD15 JUMPI PUSH2 0xD15 PUSH2 0x2DC6 JUMP JUMPDEST SWAP1 POP PUSH1 0x20 MUL DUP2 ADD SWAP1 PUSH2 0xD27 SWAP2 SWAP1 PUSH2 0x2B68 JUMP JUMPDEST DUP7 PUSH1 0x40 MLOAD PUSH1 0x20 ADD PUSH2 0xD3A SWAP4 SWAP3 SWAP2 SWAP1 PUSH2 0x2DDC JUMP JUMPDEST PUSH1 0x40 MLOAD PUSH1 0x20 DUP2 DUP4 SUB SUB DUP2 MSTORE SWAP1 PUSH1 0x40 MSTORE PUSH2 0x1D07 JUMP JUMPDEST DUP5 DUP3 DUP2 MLOAD DUP2 LT PUSH2 0xD60 JUMPI PUSH2 0xD60 PUSH2 0x2DC6 JUMP JUMPDEST PUSH1 0x20 MUL PUSH1 0x20 ADD ADD DUP2 SWAP1 MSTORE POP PUSH2 0xDF0 JUMP JUMPDEST PUSH2 0xDD2 ADDRESS DUP8 DUP8 DUP5 DUP2 DUP2 LT PUSH2 0xD86 JUMPI PUSH2 0xD86 PUSH2 0x2DC6 JUMP JUMPDEST SWAP1 POP PUSH1 0x20 MUL DUP2 ADD SWAP1 PUSH2 0xD98 SWAP2 SWAP1 PUSH2 0x2B68 JUMP JUMPDEST DUP1 DUP1 PUSH1 0x1F ADD PUSH1 0x20 DUP1 SWAP2 DIV MUL PUSH1 0x20 ADD PUSH1 0x40 MLOAD SWAP1 DUP2 ADD PUSH1 0x40 MSTORE DUP1 SWAP4 SWAP3 SWAP2 SWAP1 DUP2 DUP2 MSTORE PUSH1 0x20 ADD DUP4 DUP4 DUP1 DUP3 DUP5 CALLDATACOPY PUSH1 0x0 SWAP3 ADD SWAP2 SWAP1 SWAP2 MSTORE POP PUSH2 0x1D07 SWAP3 POP POP POP JUMP JUMPDEST DUP5 DUP3 DUP2 MLOAD DUP2 LT PUSH2 0xDE4 JUMPI PUSH2 0xDE4 PUSH2 0x2DC6 JUMP JUMPDEST PUSH1 0x20 MUL PUSH1 0x20 ADD ADD DUP2 SWAP1 MSTORE POP JUMPDEST DUP1 PUSH2 0xDFA DUP2 PUSH2 0x2DFD JUMP JUMPDEST SWAP2 POP POP PUSH2 0xCF1 JUMP JUMPDEST POP POP POP SWAP3 SWAP2 POP POP JUMP JUMPDEST DUP4 TIMESTAMP GT ISZERO PUSH2 0xE5B JUMPI PUSH1 0x40 MLOAD PUSH3 0x461BCD PUSH1 0xE5 SHL DUP2 MSTORE PUSH1 0x20 PUSH1 0x4 DUP3 ADD MSTORE PUSH1 0x1D PUSH1 0x24 DUP3 ADD MSTORE PUSH32 0x45524332305065726D69743A206578706972656420646561646C696E65000000 PUSH1 0x44 DUP3 ADD MSTORE PUSH1 0x64 ADD PUSH2 0x991 JUMP JUMPDEST PUSH1 0x0 PUSH32 0x0 DUP9 DUP9 DUP9 PUSH2 0xE8A DUP13 PUSH2 0x1D2C JUMP JUMPDEST PUSH1 0x40 DUP1 MLOAD PUSH1 0x20 DUP2 ADD SWAP7 SWAP1 SWAP7 MSTORE PUSH1 0x1 PUSH1 0x1 PUSH1 0xA0 SHL SUB SWAP5 DUP6 AND SWAP1 DUP7 ADD MSTORE SWAP3 SWAP1 SWAP2 AND PUSH1 0x60 DUP5 ADD MSTORE PUSH1 0x80 DUP4 ADD MSTORE PUSH1 0xA0 DUP3 ADD MSTORE PUSH1 0xC0 DUP2 ADD DUP7 SWAP1 MSTORE PUSH1 0xE0 ADD PUSH1 0x40 MLOAD PUSH1 0x20 DUP2 DUP4 SUB SUB DUP2 MSTORE SWAP1 PUSH1 0x40 MSTORE DUP1 MLOAD SWAP1 PUSH1 0x20 ADD KECCAK256 SWAP1 POP PUSH1 0x0 PUSH2 0xF07 PUSH2 0xEE7 PUSH2 0x689 JUMP JUMPDEST DUP4 PUSH1 0x40 MLOAD PUSH2 0x1901 PUSH1 0xF0 SHL DUP2 MSTORE PUSH1 0x2 DUP2 ADD SWAP3 SWAP1 SWAP3 MSTORE PUSH1 0x22 DUP3 ADD MSTORE PUSH1 0x42 SWAP1 KECCAK256 SWAP1 JUMP JUMPDEST SWAP1 POP PUSH1 0x0 PUSH2 0xF17 DUP3 DUP8 DUP8 DUP8 PUSH2 0x1D54 JUMP JUMPDEST SWAP1 POP DUP10 PUSH1 0x1 PUSH1 0x1 PUSH1 0xA0 SHL SUB AND DUP2 PUSH1 0x1 PUSH1 0x1 PUSH1 0xA0 SHL SUB AND EQ PUSH2 0xF7A JUMPI PUSH1 0x40 MLOAD PUSH3 0x461BCD PUSH1 0xE5 SHL DUP2 MSTORE PUSH1 0x20 PUSH1 0x4 DUP3 ADD MSTORE PUSH1 0x1E PUSH1 0x24 DUP3 ADD MSTORE PUSH32 0x45524332305065726D69743A20696E76616C6964207369676E61747572650000 PUSH1 0x44 DUP3 ADD MSTORE PUSH1 0x64 ADD PUSH2 0x991 JUMP JUMPDEST PUSH2 0xF85 DUP11 DUP11 DUP11 PUSH2 0x146D JUMP JUMPDEST POP POP POP POP POP POP POP POP POP POP JUMP JUMPDEST PUSH1 0x9 DUP1 SLOAD PUSH1 0xA SLOAD PUSH1 0xB SLOAD PUSH1 0xC SLOAD PUSH1 0xD SLOAD PUSH1 0xE SLOAD PUSH1 0xF SLOAD PUSH1 0x10 DUP1 SLOAD SWAP8 SWAP9 SWAP7 SWAP8 SWAP6 SWAP7 SWAP5 SWAP6 SWAP4 SWAP5 SWAP3 SWAP4 PUSH1 0x1 PUSH1 0x1 PUSH1 0xA0 SHL SUB SWAP1 SWAP3 AND SWAP3 SWAP2 PUSH2 0xFCD SWAP1 PUSH2 0x2B0B JUMP JUMPDEST DUP1 PUSH1 0x1F ADD PUSH1 0x20 DUP1 SWAP2 DIV MUL PUSH1 0x20 ADD PUSH1 0x40 MLOAD SWAP1 DUP2 ADD PUSH1 0x40 MSTORE DUP1 SWAP3 SWAP2 SWAP1 DUP2 DUP2 MSTORE PUSH1 0x20 ADD DUP3 DUP1 SLOAD PUSH2 0xFF9 SWAP1 PUSH2 0x2B0B JUMP JUMPDEST DUP1 ISZERO PUSH2 0x1046 JUMPI DUP1 PUSH1 0x1F LT PUSH2 0x101B JUMPI PUSH2 0x100 DUP1 DUP4 SLOAD DIV MUL DUP4 MSTORE SWAP2 PUSH1 0x20 ADD SWAP2 PUSH2 0x1046 JUMP JUMPDEST DUP3 ADD SWAP2 SWAP1 PUSH1 0x0 MSTORE PUSH1 0x20 PUSH1 0x0 KECCAK256 SWAP1 JUMPDEST DUP2 SLOAD DUP2 MSTORE SWAP1 PUSH1 0x1 ADD SWAP1 PUSH1 0x20 ADD DUP1 DUP4 GT PUSH2 0x1029 JUMPI DUP3 SWAP1 SUB PUSH1 0x1F AND DUP3 ADD SWAP2 JUMPDEST POP POP POP POP POP SWAP1 POP DUP9 JUMP JUMPDEST PUSH1 0x1 PUSH1 0x1 PUSH1 0xA0 SHL SUB SWAP2 DUP3 AND PUSH1 0x0 SWAP1 DUP2 MSTORE PUSH1 0x3 PUSH1 0x20 SWAP1 DUP2 MSTORE PUSH1 0x40 DUP1 DUP4 KECCAK256 SWAP4 SWAP1 SWAP5 AND DUP3 MSTORE SWAP2 SWAP1 SWAP2 MSTORE KECCAK256 SLOAD SWAP1 JUMP JUMPDEST PUSH1 0x0 DUP1 SLOAD PUSH2 0x1088 SWAP1 PUSH2 0x2B0B JUMP JUMPDEST DUP1 PUSH1 0x1F ADD PUSH1 0x20 DUP1 SWAP2 DIV MUL PUSH1 0x20 ADD PUSH1 0x40 MLOAD SWAP1 DUP2 ADD PUSH1 0x40 MSTORE DUP1 SWAP3 SWAP2 SWAP1 DUP2 DUP2 MSTORE PUSH1 0x20 ADD DUP3 DUP1 SLOAD PUSH2 0x10B4 SWAP1 PUSH2 0x2B0B JUMP JUMPDEST DUP1 ISZERO PUSH2 0x1101 JUMPI DUP1 PUSH1 0x1F LT PUSH2 0x10D6 JUMPI PUSH2 0x100 DUP1 DUP4 SLOAD DIV MUL DUP4 MSTORE SWAP2 PUSH1 0x20 ADD SWAP2 PUSH2 0x1101 JUMP JUMPDEST DUP3 ADD SWAP2 SWAP1 PUSH1 0x0 MSTORE PUSH1 0x20 PUSH1 0x0 KECCAK256 SWAP1 JUMPDEST DUP2 SLOAD DUP2 MSTORE SWAP1 PUSH1 0x1 ADD SWAP1 PUSH1 0x20 ADD DUP1 DUP4 GT PUSH2 0x10E4 JUMPI DUP3 SWAP1 SUB PUSH1 0x1F AND DUP3 ADD SWAP2 JUMPDEST POP POP POP POP POP DUP2 JUMP JUMPDEST PUSH1 0x40 DUP1 MLOAD PUSH2 0x100 DUP2 ADD DUP3 MSTORE PUSH1 0x9 DUP1 SLOAD DUP3 MSTORE PUSH1 0xA SLOAD PUSH1 0x20 DUP4 ADD MSTORE PUSH1 0xB SLOAD SWAP3 DUP3 ADD SWAP3 SWAP1 SWAP3 MSTORE PUSH1 0xC SLOAD PUSH1 0x60 DUP3 ADD MSTORE PUSH1 0xD SLOAD PUSH1 0x80 DUP3 ADD MSTORE PUSH1 0xE SLOAD PUSH1 0xA0 DUP3 ADD MSTORE PUSH1 0xF SLOAD PUSH1 0x1 PUSH1 0x1 PUSH1 0xA0 SHL SUB AND PUSH1 0xC0 DUP3 ADD MSTORE PUSH1 0x10 DUP1 SLOAD PUSH1 0x0 SWAP4 DUP5 SWAP4 SWAP3 SWAP1 SWAP2 PUSH1 0xE0 DUP5 ADD SWAP2 SWAP1 PUSH2 0x1170 SWAP1 PUSH2 0x2B0B JUMP JUMPDEST DUP1 PUSH1 0x1F ADD PUSH1 0x20 DUP1 SWAP2 DIV MUL PUSH1 0x20 ADD PUSH1 0x40 MLOAD SWAP1 DUP2 ADD PUSH1 0x40 MSTORE DUP1 SWAP3 SWAP2 SWAP1 DUP2 DUP2 MSTORE PUSH1 0x20 ADD DUP3 DUP1 SLOAD PUSH2 0x119C SWAP1 PUSH2 0x2B0B JUMP JUMPDEST DUP1 ISZERO PUSH2 0x11E9 JUMPI DUP1 PUSH1 0x1F LT PUSH2 0x11BE JUMPI PUSH2 0x100 DUP1 DUP4 SLOAD DIV MUL DUP4 MSTORE SWAP2 PUSH1 0x20 ADD SWAP2 PUSH2 0x11E9 JUMP JUMPDEST DUP3 ADD SWAP2 SWAP1 PUSH1 0x0 MSTORE PUSH1 0x20 PUSH1 0x0 KECCAK256 SWAP1 JUMPDEST DUP2 SLOAD DUP2 MSTORE SWAP1 PUSH1 0x1 ADD SWAP1 PUSH1 0x20 ADD DUP1 DUP4 GT PUSH2 0x11CC JUMPI DUP3 SWAP1 SUB PUSH1 0x1F AND DUP3 ADD SWAP2 JUMPDEST POP POP POP SWAP2 SWAP1 SWAP3 MSTORE POP POP POP PUSH1 0x60 DUP2 ADD MLOAD PUSH1 0xA0 DUP3 ADD MLOAD PUSH1 0xC0 DUP4 ADD MLOAD PUSH1 0x80 DUP5 ADD MLOAD SWAP4 SWAP5 POP SWAP2 SWAP3 SWAP1 SWAP2 SWAP1 ISZERO PUSH2 0x1297 JUMPI PUSH2 0x1293 PUSH2 0x1221 DUP8 DUP1 PUSH2 0x2E16 JUMP JUMPDEST DUP7 PUSH1 0x80 ADD MLOAD DUP14 DUP11 PUSH1 0x20 ADD CALLDATALOAD DUP12 PUSH1 0x40 ADD CALLDATALOAD DUP13 PUSH1 0x60 ADD PUSH1 0x20 DUP2 ADD SWAP1 PUSH2 0x1244 SWAP2 SWAP1 PUSH2 0x265F JUMP JUMPDEST PUSH1 0x40 MLOAD PUSH1 0x1 PUSH1 0x1 PUSH1 0x60 SHL SUB NOT PUSH1 0x60 SWAP6 DUP7 SHL DUP2 AND PUSH1 0x20 DUP4 ADD MSTORE PUSH1 0x34 DUP3 ADD SWAP5 SWAP1 SWAP5 MSTORE PUSH1 0x54 DUP2 ADD SWAP3 SWAP1 SWAP3 MSTORE SWAP1 SWAP3 SHL AND PUSH1 0x74 DUP3 ADD MSTORE PUSH1 0x88 ADD PUSH1 0x40 MLOAD PUSH1 0x20 DUP2 DUP4 SUB SUB DUP2 MSTORE SWAP1 PUSH1 0x40 MSTORE DUP1 MLOAD SWAP1 PUSH1 0x20 ADD KECCAK256 PUSH2 0x1D7E JUMP JUMPDEST POP SWAP5 POP JUMPDEST DUP5 ISZERO PUSH2 0x131E JUMPI DUP6 PUSH1 0x20 ADD CALLDATALOAD PUSH1 0x0 SUB PUSH2 0x12AF JUMPI DUP3 PUSH2 0x12B5 JUMP JUMPDEST DUP6 PUSH1 0x20 ADD CALLDATALOAD JUMPDEST SWAP3 POP PUSH1 0x0 NOT DUP7 PUSH1 0x40 ADD CALLDATALOAD SUB PUSH2 0x12CA JUMPI DUP2 PUSH2 0x12D0 JUMP JUMPDEST DUP6 PUSH1 0x40 ADD CALLDATALOAD JUMPDEST SWAP2 POP PUSH1 0x0 NOT DUP7 PUSH1 0x40 ADD CALLDATALOAD EQ ISZERO DUP1 ISZERO PUSH2 0x1301 JUMPI POP PUSH1 0x0 PUSH2 0x12F5 PUSH1 0x80 DUP9 ADD PUSH1 0x60 DUP10 ADD PUSH2 0x265F JUMP JUMPDEST PUSH1 0x1 PUSH1 0x1 PUSH1 0xA0 SHL SUB AND EQ ISZERO JUMPDEST PUSH2 0x130B JUMPI DUP1 PUSH2 0x131B JUMP JUMPDEST PUSH2 0x131B PUSH1 0x80 DUP8 ADD PUSH1 0x60 DUP9 ADD PUSH2 0x265F JUMP JUMPDEST SWAP1 POP JUMPDEST PUSH1 0x11 SLOAD PUSH1 0x0 SWAP1 DUP2 MSTORE PUSH1 0x12 PUSH1 0x20 SWAP1 DUP2 MSTORE PUSH1 0x40 DUP1 DUP4 KECCAK256 PUSH1 0x1 PUSH1 0x1 PUSH1 0xA0 SHL SUB DUP1 DUP16 AND DUP6 MSTORE SWAP3 MSTORE SWAP1 SWAP2 KECCAK256 SLOAD SWAP1 DUP10 DUP2 AND SWAP1 DUP4 AND EQ ISZERO DUP1 PUSH2 0x1359 JUMPI POP DUP3 DUP9 EQ ISZERO JUMPDEST ISZERO PUSH2 0x1398 JUMPI PUSH1 0x40 MLOAD PUSH4 0xF13474E9 PUSH1 0xE0 SHL DUP2 MSTORE PUSH1 0x1 PUSH1 0x1 PUSH1 0xA0 SHL SUB DUP1 DUP12 AND PUSH1 0x4 DUP4 ADD MSTORE PUSH1 0x24 DUP3 ADD DUP11 SWAP1 MSTORE DUP4 AND PUSH1 0x44 DUP3 ADD MSTORE PUSH1 0x64 DUP2 ADD DUP5 SWAP1 MSTORE PUSH1 0x84 ADD PUSH2 0x991 JUMP JUMPDEST DUP10 ISZERO DUP1 PUSH2 0x13AD JUMPI POP DUP4 PUSH2 0x13AB DUP3 DUP13 PUSH2 0x2B55 JUMP JUMPDEST GT JUMPDEST ISZERO PUSH2 0x13DF JUMPI DUP4 PUSH2 0x13BD DUP3 DUP13 PUSH2 0x2B55 JUMP JUMPDEST PUSH1 0x40 MLOAD PUSH4 0x9E7762DB PUSH1 0xE0 SHL DUP2 MSTORE PUSH1 0x4 DUP2 ADD SWAP3 SWAP1 SWAP3 MSTORE PUSH1 0x24 DUP3 ADD MSTORE PUSH1 0x44 ADD PUSH2 0x991 JUMP JUMPDEST DUP5 PUSH1 0x20 ADD MLOAD DUP11 DUP7 PUSH1 0x40 ADD MLOAD PUSH2 0x13F4 SWAP2 SWAP1 PUSH2 0x2B55 JUMP JUMPDEST GT ISZERO PUSH2 0x1431 JUMPI DUP5 PUSH1 0x20 ADD MLOAD DUP11 DUP7 PUSH1 0x40 ADD MLOAD PUSH2 0x140F SWAP2 SWAP1 PUSH2 0x2B55 JUMP JUMPDEST PUSH1 0x40 MLOAD PUSH4 0xFE381CC9 PUSH1 0xE0 SHL DUP2 MSTORE PUSH1 0x4 DUP2 ADD SWAP3 SWAP1 SWAP3 MSTORE PUSH1 0x24 DUP3 ADD MSTORE PUSH1 0x44 ADD PUSH2 0x991 JUMP JUMPDEST DUP5 MLOAD TIMESTAMP LT ISZERO PUSH2 0x145F JUMPI DUP5 MLOAD PUSH1 0x40 MLOAD PUSH4 0x22B1048F PUSH1 0xE1 SHL DUP2 MSTORE PUSH1 0x4 DUP2 ADD SWAP2 SWAP1 SWAP2 MSTORE TIMESTAMP PUSH1 0x24 DUP3 ADD MSTORE PUSH1 0x44 ADD PUSH2 0x991 JUMP JUMPDEST POP POP POP POP POP SWAP6 SWAP5 POP POP POP POP POP JUMP JUMPDEST PUSH1 0x1 PUSH1 0x1 PUSH1 0xA0 SHL SUB DUP4 AND PUSH2 0x14CF JUMPI PUSH1 0x40 MLOAD PUSH3 0x461BCD PUSH1 0xE5 SHL DUP2 MSTORE PUSH1 0x20 PUSH1 0x4 DUP3 ADD MSTORE PUSH1 0x24 DUP1 DUP3 ADD MSTORE PUSH32 0x45524332303A20617070726F76652066726F6D20746865207A65726F20616464 PUSH1 0x44 DUP3 ADD MSTORE PUSH4 0x72657373 PUSH1 0xE0 SHL PUSH1 0x64 DUP3 ADD MSTORE PUSH1 0x84 ADD PUSH2 0x991 JUMP JUMPDEST PUSH1 0x1 PUSH1 0x1 PUSH1 0xA0 SHL SUB DUP3 AND PUSH2 0x1530 JUMPI PUSH1 0x40 MLOAD PUSH3 0x461BCD PUSH1 0xE5 SHL DUP2 MSTORE PUSH1 0x20 PUSH1 0x4 DUP3 ADD MSTORE PUSH1 0x22 PUSH1 0x24 DUP3 ADD MSTORE PUSH32 0x45524332303A20617070726F766520746F20746865207A65726F206164647265 PUSH1 0x44 DUP3 ADD MSTORE PUSH2 0x7373 PUSH1 0xF0 SHL PUSH1 0x64 DUP3 ADD MSTORE PUSH1 0x84 ADD PUSH2 0x991 JUMP JUMPDEST PUSH1 0x1 PUSH1 0x1 PUSH1 0xA0 SHL SUB DUP4 DUP2 AND PUSH1 0x0 DUP2 DUP2 MSTORE PUSH1 0x3 PUSH1 0x20 SWAP1 DUP2 MSTORE PUSH1 0x40 DUP1 DUP4 KECCAK256 SWAP5 DUP8 AND DUP1 DUP5 MSTORE SWAP5 DUP3 MSTORE SWAP2 DUP3 SWAP1 KECCAK256 DUP6 SWAP1 SSTORE SWAP1 MLOAD DUP5 DUP2 MSTORE PUSH32 0x8C5BE1E5EBEC7D5BD14F71427D1E84F3DD0314C0F7B2291E5B200AC8C7C3B925 SWAP2 ADD PUSH1 0x40 MLOAD DUP1 SWAP2 SUB SWAP1 LOG3 POP POP POP JUMP JUMPDEST PUSH1 0x0 PUSH2 0x15A5 PUSH1 0x1 SLOAD PUSH1 0x1 PUSH1 0x1 PUSH1 0xA0 SHL SUB AND SWAP1 JUMP JUMPDEST PUSH1 0x1 PUSH1 0x1 PUSH1 0xA0 SHL SUB AND CALLER PUSH1 0x1 PUSH1 0x1 PUSH1 0xA0 SHL SUB AND EQ SWAP1 POP SWAP1 JUMP JUMPDEST PUSH1 0x1 DUP1 SLOAD PUSH1 0x1 PUSH1 0x1 PUSH1 0xA0 SHL SUB DUP4 DUP2 AND PUSH1 0x1 PUSH1 0x1 PUSH1 0xA0 SHL SUB NOT DUP4 AND DUP2 OR SWAP1 SWAP4 SSTORE PUSH1 0x40 MLOAD SWAP2 AND SWAP2 SWAP1 DUP3 SWAP1 PUSH32 0x8292FCE18FA69EDF4DB7B94EA2E58241DF0AE57F97E0A6C9B29067028BF92D76 SWAP1 PUSH1 0x0 SWAP1 LOG3 POP POP JUMP JUMPDEST PUSH1 0x0 PUSH2 0x161C DUP5 DUP5 PUSH2 0x1050 JUMP JUMPDEST SWAP1 POP PUSH1 0x0 NOT DUP2 EQ PUSH2 0x1684 JUMPI DUP2 DUP2 LT ISZERO PUSH2 0x1677 JUMPI PUSH1 0x40 MLOAD PUSH3 0x461BCD PUSH1 0xE5 SHL DUP2 MSTORE PUSH1 0x20 PUSH1 0x4 DUP3 ADD MSTORE PUSH1 0x1D PUSH1 0x24 DUP3 ADD MSTORE PUSH32 0x45524332303A20696E73756666696369656E7420616C6C6F77616E6365000000 PUSH1 0x44 DUP3 ADD MSTORE PUSH1 0x64 ADD PUSH2 0x991 JUMP JUMPDEST PUSH2 0x1684 DUP5 DUP5 DUP5 DUP5 SUB PUSH2 0x146D JUMP JUMPDEST POP POP POP POP JUMP JUMPDEST PUSH1 0x1 PUSH1 0x1 PUSH1 0xA0 SHL SUB DUP4 AND PUSH2 0x16EE JUMPI PUSH1 0x40 MLOAD PUSH3 0x461BCD PUSH1 0xE5 SHL DUP2 MSTORE PUSH1 0x20 PUSH1 0x4 DUP3 ADD MSTORE PUSH1 0x25 PUSH1 0x24 DUP3 ADD MSTORE PUSH32 0x45524332303A207472616E736665722066726F6D20746865207A65726F206164 PUSH1 0x44 DUP3 ADD MSTORE PUSH5 0x6472657373 PUSH1 0xD8 SHL PUSH1 0x64 DUP3 ADD MSTORE PUSH1 0x84 ADD PUSH2 0x991 JUMP JUMPDEST PUSH1 0x1 PUSH1 0x1 PUSH1 0xA0 SHL SUB DUP3 AND PUSH2 0x1750 JUMPI PUSH1 0x40 MLOAD PUSH3 0x461BCD PUSH1 0xE5 SHL DUP2 MSTORE PUSH1 0x20 PUSH1 0x4 DUP3 ADD MSTORE PUSH1 0x23 PUSH1 0x24 DUP3 ADD MSTORE PUSH32 0x45524332303A207472616E7366657220746F20746865207A65726F2061646472 PUSH1 0x44 DUP3 ADD MSTORE PUSH3 0x657373 PUSH1 0xE8 SHL PUSH1 0x64 DUP3 ADD MSTORE PUSH1 0x84 ADD PUSH2 0x991 JUMP JUMPDEST PUSH1 0x1 PUSH1 0x1 PUSH1 0xA0 SHL SUB DUP4 AND PUSH1 0x0 SWAP1 DUP2 MSTORE PUSH1 0x2 PUSH1 0x20 MSTORE PUSH1 0x40 SWAP1 KECCAK256 SLOAD DUP2 DUP2 LT ISZERO PUSH2 0x17C8 JUMPI PUSH1 0x40 MLOAD PUSH3 0x461BCD PUSH1 0xE5 SHL DUP2 MSTORE PUSH1 0x20 PUSH1 0x4 DUP3 ADD MSTORE PUSH1 0x26 PUSH1 0x24 DUP3 ADD MSTORE PUSH32 0x45524332303A207472616E7366657220616D6F756E7420657863656564732062 PUSH1 0x44 DUP3 ADD MSTORE PUSH6 0x616C616E6365 PUSH1 0xD0 SHL PUSH1 0x64 DUP3 ADD MSTORE PUSH1 0x84 ADD PUSH2 0x991 JUMP JUMPDEST PUSH1 0x1 PUSH1 0x1 PUSH1 0xA0 SHL SUB DUP1 DUP6 AND PUSH1 0x0 SWAP1 DUP2 MSTORE PUSH1 0x2 PUSH1 0x20 MSTORE PUSH1 0x40 DUP1 DUP3 KECCAK256 DUP6 DUP6 SUB SWAP1 SSTORE SWAP2 DUP6 AND DUP2 MSTORE SWAP1 DUP2 KECCAK256 DUP1 SLOAD DUP5 SWAP3 SWAP1 PUSH2 0x17FF SWAP1 DUP5 SWAP1 PUSH2 0x2B55 JUMP JUMPDEST SWAP3 POP POP DUP2 SWAP1 SSTORE POP DUP3 PUSH1 0x1 PUSH1 0x1 PUSH1 0xA0 SHL SUB AND DUP5 PUSH1 0x1 PUSH1 0x1 PUSH1 0xA0 SHL SUB AND PUSH32 0xDDF252AD1BE2C89B69C2B068FC378DAA952BA7F163C4A11628F55A4DF523B3EF DUP5 PUSH1 0x40 MLOAD PUSH2 0x184B SWAP2 DUP2 MSTORE PUSH1 0x20 ADD SWAP1 JUMP JUMPDEST PUSH1 0x40 MLOAD DUP1 SWAP2 SUB SWAP1 LOG3 PUSH2 0x1684 JUMP JUMPDEST PUSH1 0x0 PUSH32 0x8B73C3C69BB8FE3D512ECC4CF759CC79239F7B179B0FFACAA9A75D522B39400F PUSH2 0x1883 PUSH2 0x586 JUMP JUMPDEST DUP1 MLOAD PUSH1 0x20 SWAP2 DUP3 ADD KECCAK256 PUSH1 0x40 DUP1 MLOAD SWAP3 DUP4 ADD SWAP4 SWAP1 SWAP4 MSTORE SWAP2 DUP2 ADD SWAP2 SWAP1 SWAP2 MSTORE PUSH32 0xC89EFDAA54C0F20C7ADF612882DF0950F5A951637E0307CDCB4C672F298B8BC6 PUSH1 0x60 DUP3 ADD MSTORE CHAINID PUSH1 0x80 DUP3 ADD MSTORE ADDRESS PUSH1 0xA0 DUP3 ADD MSTORE PUSH1 0xC0 ADD PUSH1 0x40 MLOAD PUSH1 0x20 DUP2 DUP4 SUB SUB DUP2 MSTORE SWAP1 PUSH1 0x40 MSTORE DUP1 MLOAD SWAP1 PUSH1 0x20 ADD KECCAK256 SWAP1 POP SWAP1 JUMP JUMPDEST PUSH1 0x1 PUSH1 0x1 PUSH1 0xA0 SHL SUB DUP3 AND PUSH2 0x194D JUMPI PUSH1 0x40 MLOAD PUSH3 0x461BCD PUSH1 0xE5 SHL DUP2 MSTORE PUSH1 0x20 PUSH1 0x4 DUP3 ADD MSTORE PUSH1 0x21 PUSH1 0x24 DUP3 ADD MSTORE PUSH32 0x45524332303A206275726E2066726F6D20746865207A65726F20616464726573 PUSH1 0x44 DUP3 ADD MSTORE PUSH1 0x73 PUSH1 0xF8 SHL PUSH1 0x64 DUP3 ADD MSTORE PUSH1 0x84 ADD PUSH2 0x991 JUMP JUMPDEST PUSH1 0x1 PUSH1 0x1 PUSH1 0xA0 SHL SUB DUP3 AND PUSH1 0x0 SWAP1 DUP2 MSTORE PUSH1 0x2 PUSH1 0x20 MSTORE PUSH1 0x40 SWAP1 KECCAK256 SLOAD DUP2 DUP2 LT ISZERO PUSH2 0x19C1 JUMPI PUSH1 0x40 MLOAD PUSH3 0x461BCD PUSH1 0xE5 SHL DUP2 MSTORE PUSH1 0x20 PUSH1 0x4 DUP3 ADD MSTORE PUSH1 0x22 PUSH1 0x24 DUP3 ADD MSTORE PUSH32 0x45524332303A206275726E20616D6F756E7420657863656564732062616C616E PUSH1 0x44 DUP3 ADD MSTORE PUSH2 0x6365 PUSH1 0xF0 SHL PUSH1 0x64 DUP3 ADD MSTORE PUSH1 0x84 ADD PUSH2 0x991 JUMP JUMPDEST PUSH1 0x1 PUSH1 0x1 PUSH1 0xA0 SHL SUB DUP4 AND PUSH1 0x0 SWAP1 DUP2 MSTORE PUSH1 0x2 PUSH1 0x20 MSTORE PUSH1 0x40 DUP2 KECCAK256 DUP4 DUP4 SUB SWAP1 SSTORE PUSH1 0x4 DUP1 SLOAD DUP5 SWAP3 SWAP1 PUSH2 0x19F0 SWAP1 DUP5 SWAP1 PUSH2 0x2DB3 JUMP JUMPDEST SWAP1 SWAP2 SSTORE POP POP PUSH1 0x40 MLOAD DUP3 DUP2 MSTORE PUSH1 0x0 SWAP1 PUSH1 0x1 PUSH1 0x1 PUSH1 0xA0 SHL SUB DUP6 AND SWAP1 PUSH32 0xDDF252AD1BE2C89B69C2B068FC378DAA952BA7F163C4A11628F55A4DF523B3EF SWAP1 PUSH1 0x20 ADD PUSH1 0x40 MLOAD DUP1 SWAP2 SUB SWAP1 LOG3 POP POP POP JUMP JUMPDEST PUSH1 0x1 PUSH1 0x1 PUSH1 0xA0 SHL SUB DUP2 AND PUSH2 0x1A6D JUMPI PUSH1 0x40 MLOAD PUSH4 0xF7CAC37 PUSH1 0xE2 SHL DUP2 MSTORE PUSH1 0x1 PUSH1 0x1 PUSH1 0xA0 SHL SUB DUP3 AND PUSH1 0x4 DUP3 ADD MSTORE PUSH1 0x24 ADD PUSH2 0x991 JUMP JUMPDEST PUSH1 0x8 DUP1 SLOAD PUSH1 0x1 PUSH1 0x1 PUSH1 0xA0 SHL SUB NOT AND PUSH1 0x1 PUSH1 0x1 PUSH1 0xA0 SHL SUB DUP4 AND SWAP1 DUP2 OR SWAP1 SWAP2 SSTORE PUSH1 0x40 MLOAD PUSH32 0x299D17E95023F496E0FFC4909CFF1A61F74BB5EB18DE6F900F4155BFA1B3B333 SWAP1 PUSH1 0x0 SWAP1 LOG2 POP JUMP JUMPDEST POP POP POP POP POP POP JUMP JUMPDEST DUP1 PUSH1 0x0 SUB PUSH2 0x1B03 JUMPI CALLVALUE ISZERO PUSH2 0x1AFE JUMPI PUSH1 0x40 MLOAD PUSH3 0x461BCD PUSH1 0xE5 SHL DUP2 MSTORE PUSH1 0x20 PUSH1 0x4 DUP3 ADD MSTORE PUSH1 0x6 PUSH1 0x24 DUP3 ADD MSTORE PUSH6 0x2156616C7565 PUSH1 0xD0 SHL PUSH1 0x44 DUP3 ADD MSTORE PUSH1 0x64 ADD PUSH2 0x991 JUMP JUMPDEST PUSH2 0x1684 JUMP JUMPDEST PUSH1 0x0 PUSH8 0xDE0B6B3A7640000 PUSH2 0x1B18 DUP4 DUP7 PUSH2 0x2E60 JUMP JUMPDEST PUSH2 0x1B22 SWAP2 SWAP1 PUSH2 0x2E77 JUMP JUMPDEST SWAP1 POP PUSH1 0x0 DUP2 GT PUSH2 0x1B67 JUMPI PUSH1 0x40 MLOAD PUSH3 0x461BCD PUSH1 0xE5 SHL DUP2 MSTORE PUSH1 0x20 PUSH1 0x4 DUP3 ADD MSTORE PUSH1 0x10 PUSH1 0x24 DUP3 ADD MSTORE PUSH16 0x7175616E7469747920746F6F206C6F77 PUSH1 0x80 SHL PUSH1 0x44 DUP3 ADD MSTORE PUSH1 0x64 ADD PUSH2 0x991 JUMP JUMPDEST PUSH1 0x0 PUSH20 0xEEEEEEEEEEEEEEEEEEEEEEEEEEEEEEEEEEEEEEED NOT PUSH1 0x1 PUSH1 0x1 PUSH1 0xA0 SHL SUB DUP6 AND ADD PUSH2 0x1B97 JUMPI POP CALLVALUE DUP2 EQ PUSH2 0x1B9B JUMP JUMPDEST POP CALLVALUE ISZERO JUMPDEST DUP1 PUSH2 0x1BDC JUMPI PUSH1 0x40 MLOAD PUSH3 0x461BCD PUSH1 0xE5 SHL DUP2 MSTORE PUSH1 0x20 PUSH1 0x4 DUP3 ADD MSTORE PUSH1 0x11 PUSH1 0x24 DUP3 ADD MSTORE PUSH17 0x496E76616C6964206D73672076616C7565 PUSH1 0x78 SHL PUSH1 0x44 DUP3 ADD MSTORE PUSH1 0x64 ADD PUSH2 0x991 JUMP JUMPDEST PUSH1 0x0 PUSH1 0x1 PUSH1 0x1 PUSH1 0xA0 SHL SUB DUP8 AND ISZERO PUSH2 0x1BF3 JUMPI DUP7 PUSH2 0x1C00 JUMP JUMPDEST PUSH1 0x8 SLOAD PUSH1 0x1 PUSH1 0x1 PUSH1 0xA0 SHL SUB AND JUMPDEST SWAP1 POP PUSH2 0x1C0E DUP6 CALLER DUP4 DUP7 PUSH2 0x1E16 JUMP JUMPDEST POP POP POP POP POP POP POP JUMP JUMPDEST PUSH1 0x0 PUSH2 0x1C23 DUP4 DUP4 PUSH2 0x1E57 JUMP JUMPDEST POP PUSH1 0x0 SWAP3 SWAP2 POP POP JUMP JUMPDEST PUSH1 0x0 DUP1 DUP1 SLOAD PUSH2 0x1C3A SWAP1 PUSH2 0x2B0B JUMP JUMPDEST DUP1 PUSH1 0x1F ADD PUSH1 0x20 DUP1 SWAP2 DIV MUL PUSH1 0x20 ADD PUSH1 0x40 MLOAD SWAP1 DUP2 ADD PUSH1 0x40 MSTORE DUP1 SWAP3 SWAP2 SWAP1 DUP2 DUP2 MSTORE PUSH1 0x20 ADD DUP3 DUP1 SLOAD PUSH2 0x1C66 SWAP1 PUSH2 0x2B0B JUMP JUMPDEST DUP1 ISZERO PUSH2 0x1CB3 JUMPI DUP1 PUSH1 0x1F LT PUSH2 0x1C88 JUMPI PUSH2 0x100 DUP1 DUP4 SLOAD DIV MUL DUP4 MSTORE SWAP2 PUSH1 0x20 ADD SWAP2 PUSH2 0x1CB3 JUMP JUMPDEST DUP3 ADD SWAP2 SWAP1 PUSH1 0x0 MSTORE PUSH1 0x20 PUSH1 0x0 KECCAK256 SWAP1 JUMPDEST DUP2 SLOAD DUP2 MSTORE SWAP1 PUSH1 0x1 ADD SWAP1 PUSH1 0x20 ADD DUP1 DUP4 GT PUSH2 0x1C96 JUMPI DUP3 SWAP1 SUB PUSH1 0x1F AND DUP3 ADD SWAP2 JUMPDEST POP POP POP POP POP SWAP1 POP DUP2 PUSH1 0x0 SWAP1 DUP2 PUSH2 0x1CC9 SWAP2 SWAP1 PUSH2 0x2BFC JUMP JUMPDEST POP PUSH32 0xC9C7C3FE08B88B4DF9D4D47EF47D2C43D55C025A0BA88CA442580ED9E7348A16 DUP2 DUP4 PUSH1 0x40 MLOAD PUSH2 0x1CFB SWAP3 SWAP2 SWAP1 PUSH2 0x2E99 JUMP JUMPDEST PUSH1 0x40 MLOAD DUP1 SWAP2 SUB SWAP1 LOG1 POP POP JUMP JUMPDEST PUSH1 0x60 PUSH2 0x682 DUP4 DUP4 PUSH1 0x40 MLOAD DUP1 PUSH1 0x60 ADD PUSH1 0x40 MSTORE DUP1 PUSH1 0x27 DUP2 MSTORE PUSH1 0x20 ADD PUSH2 0x2F17 PUSH1 0x27 SWAP2 CODECOPY PUSH2 0x1F36 JUMP JUMPDEST PUSH1 0x1 PUSH1 0x1 PUSH1 0xA0 SHL SUB DUP2 AND PUSH1 0x0 SWAP1 DUP2 MSTORE PUSH1 0x7 PUSH1 0x20 MSTORE PUSH1 0x40 SWAP1 KECCAK256 DUP1 SLOAD PUSH1 0x1 DUP2 ADD DUP3 SSTORE SWAP1 JUMPDEST POP SWAP2 SWAP1 POP JUMP JUMPDEST PUSH1 0x0 DUP1 PUSH1 0x0 PUSH2 0x1D65 DUP8 DUP8 DUP8 DUP8 PUSH2 0x1FAE JUMP JUMPDEST SWAP2 POP SWAP2 POP PUSH2 0x1D72 DUP2 PUSH2 0x206F JUMP JUMPDEST POP SWAP1 POP JUMPDEST SWAP5 SWAP4 POP POP POP POP JUMP JUMPDEST PUSH1 0x0 DUP1 DUP3 DUP2 DUP1 JUMPDEST DUP8 DUP2 LT ISZERO PUSH2 0x1E04 JUMPI PUSH2 0x1D98 PUSH1 0x2 DUP4 PUSH2 0x2E60 JUMP JUMPDEST SWAP2 POP PUSH1 0x0 DUP10 DUP10 DUP4 DUP2 DUP2 LT PUSH2 0x1DAE JUMPI PUSH2 0x1DAE PUSH2 0x2DC6 JUMP JUMPDEST SWAP1 POP PUSH1 0x20 MUL ADD CALLDATALOAD SWAP1 POP DUP1 DUP5 GT PUSH2 0x1DD3 JUMPI PUSH1 0x0 DUP5 DUP2 MSTORE PUSH1 0x20 DUP3 SWAP1 MSTORE PUSH1 0x40 SWAP1 KECCAK256 SWAP4 POP PUSH2 0x1DF1 JUMP JUMPDEST PUSH1 0x0 DUP2 DUP2 MSTORE PUSH1 0x20 DUP6 SWAP1 MSTORE PUSH1 0x40 SWAP1 KECCAK256 SWAP4 POP PUSH2 0x1DEE PUSH1 0x1 DUP5 PUSH2 0x2B55 JUMP JUMPDEST SWAP3 POP JUMPDEST POP DUP1 PUSH2 0x1DFC DUP2 PUSH2 0x2DFD JUMP JUMPDEST SWAP2 POP POP PUSH2 0x1D85 JUMP JUMPDEST POP SWAP1 DUP6 EQ SWAP3 POP SWAP1 POP JUMPDEST SWAP5 POP SWAP5 SWAP3 POP POP POP JUMP JUMPDEST DUP1 ISZERO PUSH2 0x1684 JUMPI PUSH20 0xEEEEEEEEEEEEEEEEEEEEEEEEEEEEEEEEEEEEEEED NOT PUSH1 0x1 PUSH1 0x1 PUSH1 0xA0 SHL SUB DUP6 AND ADD PUSH2 0x1E4B JUMPI PUSH2 0x1AFE DUP3 DUP3 PUSH2 0x21B9 JUMP JUMPDEST PUSH2 0x1684 DUP5 DUP5 DUP5 DUP5 PUSH2 0x223F JUMP JUMPDEST PUSH1 0x1 PUSH1 0x1 PUSH1 0xA0 SHL SUB DUP3 AND PUSH2 0x1EAD JUMPI PUSH1 0x40 MLOAD PUSH3 0x461BCD PUSH1 0xE5 SHL DUP2 MSTORE PUSH1 0x20 PUSH1 0x4 DUP3 ADD MSTORE PUSH1 0x1F PUSH1 0x24 DUP3 ADD MSTORE PUSH32 0x45524332303A206D696E7420746F20746865207A65726F206164647265737300 PUSH1 0x44 DUP3 ADD MSTORE PUSH1 0x64 ADD PUSH2 0x991 JUMP JUMPDEST DUP1 PUSH1 0x4 PUSH1 0x0 DUP3 DUP3 SLOAD PUSH2 0x1EBF SWAP2 SWAP1 PUSH2 0x2B55 JUMP JUMPDEST SWAP1 SWAP2 SSTORE POP POP PUSH1 0x1 PUSH1 0x1 PUSH1 0xA0 SHL SUB DUP3 AND PUSH1 0x0 SWAP1 DUP2 MSTORE PUSH1 0x2 PUSH1 0x20 MSTORE PUSH1 0x40 DUP2 KECCAK256 DUP1 SLOAD DUP4 SWAP3 SWAP1 PUSH2 0x1EEC SWAP1 DUP5 SWAP1 PUSH2 0x2B55 JUMP JUMPDEST SWAP1 SWAP2 SSTORE POP POP PUSH1 0x40 MLOAD DUP2 DUP2 MSTORE PUSH1 0x1 PUSH1 0x1 PUSH1 0xA0 SHL SUB DUP4 AND SWAP1 PUSH1 0x0 SWAP1 PUSH32 0xDDF252AD1BE2C89B69C2B068FC378DAA952BA7F163C4A11628F55A4DF523B3EF SWAP1 PUSH1 0x20 ADD PUSH1 0x40 MLOAD DUP1 SWAP2 SUB SWAP1 LOG3 POP POP JUMP JUMPDEST PUSH1 0x60 PUSH1 0x0 DUP1 DUP6 PUSH1 0x1 PUSH1 0x1 PUSH1 0xA0 SHL SUB AND DUP6 PUSH1 0x40 MLOAD PUSH2 0x1F53 SWAP2 SWAP1 PUSH2 0x2EC7 JUMP JUMPDEST PUSH1 0x0 PUSH1 0x40 MLOAD DUP1 DUP4 SUB DUP2 DUP6 GAS DELEGATECALL SWAP2 POP POP RETURNDATASIZE DUP1 PUSH1 0x0 DUP2 EQ PUSH2 0x1F8E JUMPI PUSH1 0x40 MLOAD SWAP2 POP PUSH1 0x1F NOT PUSH1 0x3F RETURNDATASIZE ADD AND DUP3 ADD PUSH1 0x40 MSTORE RETURNDATASIZE DUP3 MSTORE RETURNDATASIZE PUSH1 0x0 PUSH1 0x20 DUP5 ADD RETURNDATACOPY PUSH2 0x1F93 JUMP JUMPDEST PUSH1 0x60 SWAP2 POP JUMPDEST POP SWAP2 POP SWAP2 POP PUSH2 0x1FA4 DUP7 DUP4 DUP4 DUP8 PUSH2 0x2292 JUMP JUMPDEST SWAP7 SWAP6 POP POP POP POP POP POP JUMP JUMPDEST PUSH1 0x0 DUP1 PUSH32 0x7FFFFFFFFFFFFFFFFFFFFFFFFFFFFFFF5D576E7357A4501DDFE92F46681B20A0 DUP4 GT ISZERO PUSH2 0x1FE5 JUMPI POP PUSH1 0x0 SWAP1 POP PUSH1 0x3 PUSH2 0x1E0D JUMP JUMPDEST PUSH1 0x40 DUP1 MLOAD PUSH1 0x0 DUP1 DUP3 MSTORE PUSH1 0x20 DUP3 ADD DUP1 DUP5 MSTORE DUP10 SWAP1 MSTORE PUSH1 0xFF DUP9 AND SWAP3 DUP3 ADD SWAP3 SWAP1 SWAP3 MSTORE PUSH1 0x60 DUP2 ADD DUP7 SWAP1 MSTORE PUSH1 0x80 DUP2 ADD DUP6 SWAP1 MSTORE PUSH1 0x1 SWAP1 PUSH1 0xA0 ADD PUSH1 0x20 PUSH1 0x40 MLOAD PUSH1 0x20 DUP2 SUB SWAP1 DUP1 DUP5 SUB SWAP1 DUP6 GAS STATICCALL ISZERO DUP1 ISZERO PUSH2 0x2039 JUMPI RETURNDATASIZE PUSH1 0x0 DUP1 RETURNDATACOPY RETURNDATASIZE PUSH1 0x0 REVERT JUMPDEST POP POP PUSH1 0x40 MLOAD PUSH1 0x1F NOT ADD MLOAD SWAP2 POP POP PUSH1 0x1 PUSH1 0x1 PUSH1 0xA0 SHL SUB DUP2 AND PUSH2 0x2062 JUMPI PUSH1 0x0 PUSH1 0x1 SWAP3 POP SWAP3 POP POP PUSH2 0x1E0D JUMP JUMPDEST SWAP7 PUSH1 0x0 SWAP7 POP SWAP5 POP POP POP POP POP JUMP JUMPDEST PUSH1 0x0 DUP2 PUSH1 0x4 DUP2 GT ISZERO PUSH2 0x2083 JUMPI PUSH2 0x2083 PUSH2 0x2EE3 JUMP JUMPDEST SUB PUSH2 0x208B JUMPI POP JUMP JUMPDEST PUSH1 0x1 DUP2 PUSH1 0x4 DUP2 GT ISZERO PUSH2 0x209F JUMPI PUSH2 0x209F PUSH2 0x2EE3 JUMP JUMPDEST SUB PUSH2 0x20EC JUMPI PUSH1 0x40 MLOAD PUSH3 0x461BCD PUSH1 0xE5 SHL DUP2 MSTORE PUSH1 0x20 PUSH1 0x4 DUP3 ADD MSTORE PUSH1 0x18 PUSH1 0x24 DUP3 ADD MSTORE PUSH32 0x45434453413A20696E76616C6964207369676E61747572650000000000000000 PUSH1 0x44 DUP3 ADD MSTORE PUSH1 0x64 ADD PUSH2 0x991 JUMP JUMPDEST PUSH1 0x2 DUP2 PUSH1 0x4 DUP2 GT ISZERO PUSH2 0x2100 JUMPI PUSH2 0x2100 PUSH2 0x2EE3 JUMP JUMPDEST SUB PUSH2 0x214D JUMPI PUSH1 0x40 MLOAD PUSH3 0x461BCD PUSH1 0xE5 SHL DUP2 MSTORE PUSH1 0x20 PUSH1 0x4 DUP3 ADD MSTORE PUSH1 0x1F PUSH1 0x24 DUP3 ADD MSTORE PUSH32 0x45434453413A20696E76616C6964207369676E6174757265206C656E67746800 PUSH1 0x44 DUP3 ADD MSTORE PUSH1 0x64 ADD PUSH2 0x991 JUMP JUMPDEST PUSH1 0x3 DUP2 PUSH1 0x4 DUP2 GT ISZERO PUSH2 0x2161 JUMPI PUSH2 0x2161 PUSH2 0x2EE3 JUMP JUMPDEST SUB PUSH2 0x660 JUMPI PUSH1 0x40 MLOAD PUSH3 0x461BCD PUSH1 0xE5 SHL DUP2 MSTORE PUSH1 0x20 PUSH1 0x4 DUP3 ADD MSTORE PUSH1 0x22 PUSH1 0x24 DUP3 ADD MSTORE PUSH32 0x45434453413A20696E76616C6964207369676E6174757265202773272076616C PUSH1 0x44 DUP3 ADD MSTORE PUSH2 0x7565 PUSH1 0xF0 SHL PUSH1 0x64 DUP3 ADD MSTORE PUSH1 0x84 ADD PUSH2 0x991 JUMP JUMPDEST PUSH1 0x0 DUP3 PUSH1 0x1 PUSH1 0x1 PUSH1 0xA0 SHL SUB AND DUP3 PUSH1 0x40 MLOAD PUSH1 0x0 PUSH1 0x40 MLOAD DUP1 DUP4 SUB DUP2 DUP6 DUP8 GAS CALL SWAP3 POP POP POP RETURNDATASIZE DUP1 PUSH1 0x0 DUP2 EQ PUSH2 0x2206 JUMPI PUSH1 0x40 MLOAD SWAP2 POP PUSH1 0x1F NOT PUSH1 0x3F RETURNDATASIZE ADD AND DUP3 ADD PUSH1 0x40 MSTORE RETURNDATASIZE DUP3 MSTORE RETURNDATASIZE PUSH1 0x0 PUSH1 0x20 DUP5 ADD RETURNDATACOPY PUSH2 0x220B JUMP JUMPDEST PUSH1 0x60 SWAP2 POP JUMPDEST POP POP SWAP1 POP DUP1 PUSH2 0xAC3 JUMPI PUSH1 0x40 MLOAD PUSH4 0x5FDC4EC1 PUSH1 0xE1 SHL DUP2 MSTORE PUSH1 0x1 PUSH1 0x1 PUSH1 0xA0 SHL SUB DUP5 AND PUSH1 0x4 DUP3 ADD MSTORE PUSH1 0x24 DUP2 ADD DUP4 SWAP1 MSTORE PUSH1 0x44 ADD PUSH2 0x991 JUMP JUMPDEST DUP2 PUSH1 0x1 PUSH1 0x1 PUSH1 0xA0 SHL SUB AND DUP4 PUSH1 0x1 PUSH1 0x1 PUSH1 0xA0 SHL SUB AND SUB ISZERO PUSH2 0x1684 JUMPI ADDRESS PUSH1 0x1 PUSH1 0x1 PUSH1 0xA0 SHL SUB DUP5 AND SUB PUSH2 0x227D JUMPI PUSH2 0x1AFE PUSH1 0x1 PUSH1 0x1 PUSH1 0xA0 SHL SUB DUP6 AND DUP4 DUP4 PUSH2 0x230B JUMP JUMPDEST PUSH2 0x1684 PUSH1 0x1 PUSH1 0x1 PUSH1 0xA0 SHL SUB DUP6 AND DUP5 DUP5 DUP5 PUSH2 0x236E JUMP JUMPDEST PUSH1 0x60 DUP4 ISZERO PUSH2 0x2301 JUMPI DUP3 MLOAD PUSH1 0x0 SUB PUSH2 0x22FA JUMPI PUSH1 0x1 PUSH1 0x1 PUSH1 0xA0 SHL SUB DUP6 AND EXTCODESIZE PUSH2 0x22FA JUMPI PUSH1 0x40 MLOAD PUSH3 0x461BCD PUSH1 0xE5 SHL DUP2 MSTORE PUSH1 0x20 PUSH1 0x4 DUP3 ADD MSTORE PUSH1 0x1D PUSH1 0x24 DUP3 ADD MSTORE PUSH32 0x416464726573733A2063616C6C20746F206E6F6E2D636F6E7472616374000000 PUSH1 0x44 DUP3 ADD MSTORE PUSH1 0x64 ADD PUSH2 0x991 JUMP JUMPDEST POP DUP2 PUSH2 0x1D76 JUMP JUMPDEST PUSH2 0x1D76 DUP4 DUP4 PUSH2 0x23A6 JUMP JUMPDEST PUSH1 0x40 MLOAD PUSH1 0x1 PUSH1 0x1 PUSH1 0xA0 SHL SUB DUP4 AND PUSH1 0x24 DUP3 ADD MSTORE PUSH1 0x44 DUP2 ADD DUP3 SWAP1 MSTORE PUSH2 0xAC3 SWAP1 DUP5 SWAP1 PUSH4 0xA9059CBB PUSH1 0xE0 SHL SWAP1 PUSH1 0x64 ADD JUMPDEST PUSH1 0x40 DUP1 MLOAD PUSH1 0x1F NOT DUP2 DUP5 SUB ADD DUP2 MSTORE SWAP2 SWAP1 MSTORE PUSH1 0x20 DUP2 ADD DUP1 MLOAD PUSH1 0x1 PUSH1 0x1 PUSH1 0xE0 SHL SUB AND PUSH1 0x1 PUSH1 0x1 PUSH1 0xE0 SHL SUB NOT SWAP1 SWAP4 AND SWAP3 SWAP1 SWAP3 OR SWAP1 SWAP2 MSTORE PUSH2 0x23D0 JUMP JUMPDEST PUSH1 0x40 MLOAD PUSH1 0x1 PUSH1 0x1 PUSH1 0xA0 SHL SUB DUP1 DUP6 AND PUSH1 0x24 DUP4 ADD MSTORE DUP4 AND PUSH1 0x44 DUP3 ADD MSTORE PUSH1 0x64 DUP2 ADD DUP3 SWAP1 MSTORE PUSH2 0x1684 SWAP1 DUP6 SWAP1 PUSH4 0x23B872DD PUSH1 0xE0 SHL SWAP1 PUSH1 0x84 ADD PUSH2 0x2337 JUMP JUMPDEST DUP2 MLOAD ISZERO PUSH2 0x23B6 JUMPI DUP2 MLOAD DUP1 DUP4 PUSH1 0x20 ADD REVERT JUMPDEST DUP1 PUSH1 0x40 MLOAD PUSH3 0x461BCD PUSH1 0xE5 SHL DUP2 MSTORE PUSH1 0x4 ADD PUSH2 0x991 SWAP2 SWAP1 PUSH2 0x2606 JUMP JUMPDEST PUSH1 0x0 PUSH2 0x2425 DUP3 PUSH1 0x40 MLOAD DUP1 PUSH1 0x40 ADD PUSH1 0x40 MSTORE DUP1 PUSH1 0x20 DUP2 MSTORE PUSH1 0x20 ADD PUSH32 0x5361666545524332303A206C6F772D6C6576656C2063616C6C206661696C6564 DUP2 MSTORE POP DUP6 PUSH1 0x1 PUSH1 0x1 PUSH1 0xA0 SHL SUB AND PUSH2 0x24A2 SWAP1 SWAP3 SWAP2 SWAP1 PUSH4 0xFFFFFFFF AND JUMP JUMPDEST DUP1 MLOAD SWAP1 SWAP2 POP ISZERO PUSH2 0xAC3 JUMPI DUP1 DUP1 PUSH1 0x20 ADD SWAP1 MLOAD DUP2 ADD SWAP1 PUSH2 0x2443 SWAP2 SWAP1 PUSH2 0x2EF9 JUMP JUMPDEST PUSH2 0xAC3 JUMPI PUSH1 0x40 MLOAD PUSH3 0x461BCD PUSH1 0xE5 SHL DUP2 MSTORE PUSH1 0x20 PUSH1 0x4 DUP3 ADD MSTORE PUSH1 0x2A PUSH1 0x24 DUP3 ADD MSTORE PUSH32 0x5361666545524332303A204552433230206F7065726174696F6E20646964206E PUSH1 0x44 DUP3 ADD MSTORE PUSH10 0x1BDD081CDD58D8D95959 PUSH1 0xB2 SHL PUSH1 0x64 DUP3 ADD MSTORE PUSH1 0x84 ADD PUSH2 0x991 JUMP JUMPDEST PUSH1 0x60 PUSH2 0x1D76 DUP5 DUP5 PUSH1 0x0 DUP6 DUP6 PUSH1 0x1 PUSH1 0x1 PUSH1 0xA0 SHL SUB DUP6 AND EXTCODESIZE PUSH2 0x2504 JUMPI PUSH1 0x40 MLOAD PUSH3 0x461BCD PUSH1 0xE5 SHL DUP2 MSTORE PUSH1 0x20 PUSH1 0x4 DUP3 ADD MSTORE PUSH1 0x1D PUSH1 0x24 DUP3 ADD MSTORE PUSH32 0x416464726573733A2063616C6C20746F206E6F6E2D636F6E7472616374000000 PUSH1 0x44 DUP3 ADD MSTORE PUSH1 0x64 ADD PUSH2 0x991 JUMP JUMPDEST PUSH1 0x0 DUP1 DUP7 PUSH1 0x1 PUSH1 0x1 PUSH1 0xA0 SHL SUB AND DUP6 DUP8 PUSH1 0x40 MLOAD PUSH2 0x2520 SWAP2 SWAP1 PUSH2 0x2EC7 JUMP JUMPDEST PUSH1 0x0 PUSH1 0x40 MLOAD DUP1 DUP4 SUB DUP2 DUP6 DUP8 GAS CALL SWAP3 POP POP POP RETURNDATASIZE DUP1 PUSH1 0x0 DUP2 EQ PUSH2 0x255D JUMPI PUSH1 0x40 MLOAD SWAP2 POP PUSH1 0x1F NOT PUSH1 0x3F RETURNDATASIZE ADD AND DUP3 ADD PUSH1 0x40 MSTORE RETURNDATASIZE DUP3 MSTORE RETURNDATASIZE PUSH1 0x0 PUSH1 0x20 DUP5 ADD RETURNDATACOPY PUSH2 0x2562 JUMP JUMPDEST PUSH1 0x60 SWAP2 POP JUMPDEST POP SWAP2 POP SWAP2 POP PUSH2 0x2572 DUP3 DUP3 DUP7 PUSH2 0x257D JUMP JUMPDEST SWAP8 SWAP7 POP POP POP POP POP POP POP JUMP JUMPDEST PUSH1 0x60 DUP4 ISZERO PUSH2 0x258C JUMPI POP DUP2 PUSH2 0x682 JUMP JUMPDEST DUP3 MLOAD ISZERO PUSH2 0x259C JUMPI DUP3 MLOAD DUP1 DUP5 PUSH1 0x20 ADD REVERT JUMPDEST DUP2 PUSH1 0x40 MLOAD PUSH3 0x461BCD PUSH1 0xE5 SHL DUP2 MSTORE PUSH1 0x4 ADD PUSH2 0x991 SWAP2 SWAP1 PUSH2 0x2606 JUMP JUMPDEST PUSH1 0x0 JUMPDEST DUP4 DUP2 LT ISZERO PUSH2 0x25D1 JUMPI DUP2 DUP2 ADD MLOAD DUP4 DUP3 ADD MSTORE PUSH1 0x20 ADD PUSH2 0x25B9 JUMP JUMPDEST POP POP PUSH1 0x0 SWAP2 ADD MSTORE JUMP JUMPDEST PUSH1 0x0 DUP2 MLOAD DUP1 DUP5 MSTORE PUSH2 0x25F2 DUP2 PUSH1 0x20 DUP7 ADD PUSH1 0x20 DUP7 ADD PUSH2 0x25B6 JUMP JUMPDEST PUSH1 0x1F ADD PUSH1 0x1F NOT AND SWAP3 SWAP1 SWAP3 ADD PUSH1 0x20 ADD SWAP3 SWAP2 POP POP JUMP JUMPDEST PUSH1 0x20 DUP2 MSTORE PUSH1 0x0 PUSH2 0x682 PUSH1 0x20 DUP4 ADD DUP5 PUSH2 0x25DA JUMP JUMPDEST DUP1 CALLDATALOAD PUSH1 0x1 PUSH1 0x1 PUSH1 0xA0 SHL SUB DUP2 AND DUP2 EQ PUSH2 0x2630 JUMPI PUSH1 0x0 DUP1 REVERT JUMPDEST SWAP2 SWAP1 POP JUMP JUMPDEST PUSH1 0x0 DUP1 PUSH1 0x40 DUP4 DUP6 SUB SLT ISZERO PUSH2 0x2648 JUMPI PUSH1 0x0 DUP1 REVERT JUMPDEST PUSH2 0x2651 DUP4 PUSH2 0x2619 JUMP JUMPDEST SWAP5 PUSH1 0x20 SWAP4 SWAP1 SWAP4 ADD CALLDATALOAD SWAP4 POP POP POP JUMP JUMPDEST PUSH1 0x0 PUSH1 0x20 DUP3 DUP5 SUB SLT ISZERO PUSH2 0x2671 JUMPI PUSH1 0x0 DUP1 REVERT JUMPDEST PUSH2 0x682 DUP3 PUSH2 0x2619 JUMP JUMPDEST PUSH1 0x0 DUP1 PUSH1 0x0 PUSH1 0x60 DUP5 DUP7 SUB SLT ISZERO PUSH2 0x268F JUMPI PUSH1 0x0 DUP1 REVERT JUMPDEST PUSH2 0x2698 DUP5 PUSH2 0x2619 JUMP JUMPDEST SWAP3 POP PUSH2 0x26A6 PUSH1 0x20 DUP6 ADD PUSH2 0x2619 JUMP JUMPDEST SWAP2 POP PUSH1 0x40 DUP5 ADD CALLDATALOAD SWAP1 POP SWAP3 POP SWAP3 POP SWAP3 JUMP JUMPDEST DUP1 ISZERO ISZERO DUP2 EQ PUSH2 0x660 JUMPI PUSH1 0x0 DUP1 REVERT JUMPDEST PUSH1 0x0 DUP1 PUSH1 0x40 DUP4 DUP6 SUB SLT ISZERO PUSH2 0x26D7 JUMPI PUSH1 0x0 DUP1 REVERT JUMPDEST DUP3 CALLDATALOAD PUSH8 0xFFFFFFFFFFFFFFFF DUP2 GT ISZERO PUSH2 0x26EE JUMPI PUSH1 0x0 DUP1 REVERT JUMPDEST DUP4 ADD PUSH2 0x100 DUP2 DUP7 SUB SLT ISZERO PUSH2 0x2701 JUMPI PUSH1 0x0 DUP1 REVERT JUMPDEST SWAP2 POP PUSH1 0x20 DUP4 ADD CALLDATALOAD PUSH2 0x2711 DUP2 PUSH2 0x26B6 JUMP JUMPDEST DUP1 SWAP2 POP POP SWAP3 POP SWAP3 SWAP1 POP JUMP JUMPDEST PUSH1 0x0 PUSH1 0x20 DUP3 DUP5 SUB SLT ISZERO PUSH2 0x272E JUMPI PUSH1 0x0 DUP1 REVERT JUMPDEST POP CALLDATALOAD SWAP2 SWAP1 POP JUMP JUMPDEST PUSH1 0x0 PUSH1 0x80 DUP3 DUP5 SUB SLT ISZERO PUSH2 0x1D4E JUMPI PUSH1 0x0 DUP1 REVERT JUMPDEST PUSH4 0x4E487B71 PUSH1 0xE0 SHL PUSH1 0x0 MSTORE PUSH1 0x41 PUSH1 0x4 MSTORE PUSH1 0x24 PUSH1 0x0 REVERT JUMPDEST PUSH1 0x0 PUSH8 0xFFFFFFFFFFFFFFFF DUP1 DUP5 GT ISZERO PUSH2 0x2778 JUMPI PUSH2 0x2778 PUSH2 0x2747 JUMP JUMPDEST PUSH1 0x40 MLOAD PUSH1 0x1F DUP6 ADD PUSH1 0x1F NOT SWAP1 DUP2 AND PUSH1 0x3F ADD AND DUP2 ADD SWAP1 DUP3 DUP3 GT DUP2 DUP4 LT OR ISZERO PUSH2 0x27A0 JUMPI PUSH2 0x27A0 PUSH2 0x2747 JUMP JUMPDEST DUP2 PUSH1 0x40 MSTORE DUP1 SWAP4 POP DUP6 DUP2 MSTORE DUP7 DUP7 DUP7 ADD GT ISZERO PUSH2 0x27B9 JUMPI PUSH1 0x0 DUP1 REVERT JUMPDEST DUP6 DUP6 PUSH1 0x20 DUP4 ADD CALLDATACOPY PUSH1 0x0 PUSH1 0x20 DUP8 DUP4 ADD ADD MSTORE POP POP POP SWAP4 SWAP3 POP POP POP JUMP JUMPDEST PUSH1 0x0 DUP1 PUSH1 0x0 DUP1 PUSH1 0x0 DUP1 PUSH1 0xC0 DUP8 DUP10 SUB SLT ISZERO PUSH2 0x27EC JUMPI PUSH1 0x0 DUP1 REVERT JUMPDEST PUSH2 0x27F5 DUP8 PUSH2 0x2619 JUMP JUMPDEST SWAP6 POP PUSH1 0x20 DUP8 ADD CALLDATALOAD SWAP5 POP PUSH2 0x280A PUSH1 0x40 DUP9 ADD PUSH2 0x2619 JUMP JUMPDEST SWAP4 POP PUSH1 0x60 DUP8 ADD CALLDATALOAD SWAP3 POP PUSH1 0x80 DUP8 ADD CALLDATALOAD PUSH8 0xFFFFFFFFFFFFFFFF DUP1 DUP3 GT ISZERO PUSH2 0x282E JUMPI PUSH1 0x0 DUP1 REVERT JUMPDEST PUSH2 0x283A DUP11 DUP4 DUP12 ADD PUSH2 0x2735 JUMP JUMPDEST SWAP4 POP PUSH1 0xA0 DUP10 ADD CALLDATALOAD SWAP2 POP DUP1 DUP3 GT ISZERO PUSH2 0x2850 JUMPI PUSH1 0x0 DUP1 REVERT JUMPDEST POP DUP8 ADD PUSH1 0x1F DUP2 ADD DUP10 SGT PUSH2 0x2862 JUMPI PUSH1 0x0 DUP1 REVERT JUMPDEST PUSH2 0x2871 DUP10 DUP3 CALLDATALOAD PUSH1 0x20 DUP5 ADD PUSH2 0x275D JUMP JUMPDEST SWAP2 POP POP SWAP3 SWAP6 POP SWAP3 SWAP6 POP SWAP3 SWAP6 JUMP JUMPDEST PUSH1 0x0 PUSH1 0x20 DUP3 DUP5 SUB SLT ISZERO PUSH2 0x2890 JUMPI PUSH1 0x0 DUP1 REVERT JUMPDEST DUP2 CALLDATALOAD PUSH8 0xFFFFFFFFFFFFFFFF DUP2 GT ISZERO PUSH2 0x28A7 JUMPI PUSH1 0x0 DUP1 REVERT JUMPDEST DUP3 ADD PUSH1 0x1F DUP2 ADD DUP5 SGT PUSH2 0x28B8 JUMPI PUSH1 0x0 DUP1 REVERT JUMPDEST PUSH2 0x1D76 DUP5 DUP3 CALLDATALOAD PUSH1 0x20 DUP5 ADD PUSH2 0x275D JUMP JUMPDEST PUSH1 0x0 DUP1 PUSH1 0x20 DUP4 DUP6 SUB SLT ISZERO PUSH2 0x28DA JUMPI PUSH1 0x0 DUP1 REVERT JUMPDEST DUP3 CALLDATALOAD PUSH8 0xFFFFFFFFFFFFFFFF DUP1 DUP3 GT ISZERO PUSH2 0x28F2 JUMPI PUSH1 0x0 DUP1 REVERT JUMPDEST DUP2 DUP6 ADD SWAP2 POP DUP6 PUSH1 0x1F DUP4 ADD SLT PUSH2 0x2906 JUMPI PUSH1 0x0 DUP1 REVERT JUMPDEST DUP2 CALLDATALOAD DUP2 DUP2 GT ISZERO PUSH2 0x2915 JUMPI PUSH1 0x0 DUP1 REVERT JUMPDEST DUP7 PUSH1 0x20 DUP3 PUSH1 0x5 SHL DUP6 ADD ADD GT ISZERO PUSH2 0x292A JUMPI PUSH1 0x0 DUP1 REVERT JUMPDEST PUSH1 0x20 SWAP3 SWAP1 SWAP3 ADD SWAP7 SWAP2 SWAP6 POP SWAP1 SWAP4 POP POP POP POP JUMP JUMPDEST PUSH1 0x0 PUSH1 0x20 DUP1 DUP4 ADD DUP2 DUP5 MSTORE DUP1 DUP6 MLOAD DUP1 DUP4 MSTORE PUSH1 0x40 DUP7 ADD SWAP2 POP PUSH1 0x40 DUP2 PUSH1 0x5 SHL DUP8 ADD ADD SWAP3 POP DUP4 DUP8 ADD PUSH1 0x0 JUMPDEST DUP3 DUP2 LT ISZERO PUSH2 0x2991 JUMPI PUSH1 0x3F NOT DUP9 DUP7 SUB ADD DUP5 MSTORE PUSH2 0x297F DUP6 DUP4 MLOAD PUSH2 0x25DA JUMP JUMPDEST SWAP5 POP SWAP3 DUP6 ADD SWAP3 SWAP1 DUP6 ADD SWAP1 PUSH1 0x1 ADD PUSH2 0x2963 JUMP JUMPDEST POP SWAP3 SWAP8 SWAP7 POP POP POP POP POP POP POP JUMP JUMPDEST PUSH1 0x0 DUP1 PUSH1 0x0 DUP1 PUSH1 0x0 DUP1 PUSH1 0x0 PUSH1 0xE0 DUP9 DUP11 SUB SLT ISZERO PUSH2 0x29B9 JUMPI PUSH1 0x0 DUP1 REVERT JUMPDEST PUSH2 0x29C2 DUP9 PUSH2 0x2619 JUMP JUMPDEST SWAP7 POP PUSH2 0x29D0 PUSH1 0x20 DUP10 ADD PUSH2 0x2619 JUMP JUMPDEST SWAP6 POP PUSH1 0x40 DUP9 ADD CALLDATALOAD SWAP5 POP PUSH1 0x60 DUP9 ADD CALLDATALOAD SWAP4 POP PUSH1 0x80 DUP9 ADD CALLDATALOAD PUSH1 0xFF DUP2 AND DUP2 EQ PUSH2 0x29F4 JUMPI PUSH1 0x0 DUP1 REVERT JUMPDEST SWAP7 SWAP10 SWAP6 SWAP9 POP SWAP4 SWAP7 SWAP3 SWAP6 SWAP5 PUSH1 0xA0 DUP5 ADD CALLDATALOAD SWAP5 POP PUSH1 0xC0 SWAP1 SWAP4 ADD CALLDATALOAD SWAP3 SWAP2 POP POP JUMP JUMPDEST PUSH1 0x0 PUSH2 0x100 DUP11 DUP4 MSTORE DUP10 PUSH1 0x20 DUP5 ADD MSTORE DUP9 PUSH1 0x40 DUP5 ADD MSTORE DUP8 PUSH1 0x60 DUP5 ADD MSTORE DUP7 PUSH1 0x80 DUP5 ADD MSTORE DUP6 PUSH1 0xA0 DUP5 ADD MSTORE PUSH1 0x1 DUP1 PUSH1 0xA0 SHL SUB DUP6 AND PUSH1 0xC0 DUP5 ADD MSTORE DUP1 PUSH1 0xE0 DUP5 ADD MSTORE PUSH2 0x2A57 DUP2 DUP5 ADD DUP6 PUSH2 0x25DA JUMP JUMPDEST SWAP12 SWAP11 POP POP POP POP POP POP POP POP POP POP POP JUMP JUMPDEST PUSH1 0x0 DUP1 PUSH1 0x40 DUP4 DUP6 SUB SLT ISZERO PUSH2 0x2A79 JUMPI PUSH1 0x0 DUP1 REVERT JUMPDEST PUSH2 0x2A82 DUP4 PUSH2 0x2619 JUMP JUMPDEST SWAP2 POP PUSH2 0x2A90 PUSH1 0x20 DUP5 ADD PUSH2 0x2619 JUMP JUMPDEST SWAP1 POP SWAP3 POP SWAP3 SWAP1 POP JUMP JUMPDEST PUSH1 0x0 DUP1 PUSH1 0x0 DUP1 PUSH1 0x0 PUSH1 0xA0 DUP7 DUP9 SUB SLT ISZERO PUSH2 0x2AB1 JUMPI PUSH1 0x0 DUP1 REVERT JUMPDEST PUSH2 0x2ABA DUP7 PUSH2 0x2619 JUMP JUMPDEST SWAP5 POP PUSH1 0x20 DUP7 ADD CALLDATALOAD SWAP4 POP PUSH2 0x2ACF PUSH1 0x40 DUP8 ADD PUSH2 0x2619 JUMP JUMPDEST SWAP3 POP PUSH1 0x60 DUP7 ADD CALLDATALOAD SWAP2 POP PUSH1 0x80 DUP7 ADD CALLDATALOAD PUSH8 0xFFFFFFFFFFFFFFFF DUP2 GT ISZERO PUSH2 0x2AF2 JUMPI PUSH1 0x0 DUP1 REVERT JUMPDEST PUSH2 0x2AFE DUP9 DUP3 DUP10 ADD PUSH2 0x2735 JUMP JUMPDEST SWAP2 POP POP SWAP3 SWAP6 POP SWAP3 SWAP6 SWAP1 SWAP4 POP JUMP JUMPDEST PUSH1 0x1 DUP2 DUP2 SHR SWAP1 DUP3 AND DUP1 PUSH2 0x2B1F JUMPI PUSH1 0x7F DUP3 AND SWAP2 POP JUMPDEST PUSH1 0x20 DUP3 LT DUP2 SUB PUSH2 0x1D4E JUMPI PUSH4 0x4E487B71 PUSH1 0xE0 SHL PUSH1 0x0 MSTORE PUSH1 0x22 PUSH1 0x4 MSTORE PUSH1 0x24 PUSH1 0x0 REVERT JUMPDEST PUSH4 0x4E487B71 PUSH1 0xE0 SHL PUSH1 0x0 MSTORE PUSH1 0x11 PUSH1 0x4 MSTORE PUSH1 0x24 PUSH1 0x0 REVERT JUMPDEST DUP1 DUP3 ADD DUP1 DUP3 GT ISZERO PUSH2 0x62C JUMPI PUSH2 0x62C PUSH2 0x2B3F JUMP JUMPDEST PUSH1 0x0 DUP1 DUP4 CALLDATALOAD PUSH1 0x1E NOT DUP5 CALLDATASIZE SUB ADD DUP2 SLT PUSH2 0x2B7F JUMPI PUSH1 0x0 DUP1 REVERT JUMPDEST DUP4 ADD DUP1 CALLDATALOAD SWAP2 POP PUSH8 0xFFFFFFFFFFFFFFFF DUP3 GT ISZERO PUSH2 0x2B9A JUMPI PUSH1 0x0 DUP1 REVERT JUMPDEST PUSH1 0x20 ADD SWAP2 POP CALLDATASIZE DUP2 SWAP1 SUB DUP3 SGT ISZERO PUSH2 0x2BAF JUMPI PUSH1 0x0 DUP1 REVERT JUMPDEST SWAP3 POP SWAP3 SWAP1 POP JUMP JUMPDEST PUSH1 0x1F DUP3 GT ISZERO PUSH2 0xAC3 JUMPI PUSH1 0x0 DUP2 DUP2 MSTORE PUSH1 0x20 DUP2 KECCAK256 PUSH1 0x1F DUP6 ADD PUSH1 0x5 SHR DUP2 ADD PUSH1 0x20 DUP7 LT ISZERO PUSH2 0x2BDD JUMPI POP DUP1 JUMPDEST PUSH1 0x1F DUP6 ADD PUSH1 0x5 SHR DUP3 ADD SWAP2 POP JUMPDEST DUP2 DUP2 LT ISZERO PUSH2 0x1AB7 JUMPI DUP3 DUP2 SSTORE PUSH1 0x1 ADD PUSH2 0x2BE9 JUMP JUMPDEST DUP2 MLOAD PUSH8 0xFFFFFFFFFFFFFFFF DUP2 GT ISZERO PUSH2 0x2C16 JUMPI PUSH2 0x2C16 PUSH2 0x2747 JUMP JUMPDEST PUSH2 0x2C2A DUP2 PUSH2 0x2C24 DUP5 SLOAD PUSH2 0x2B0B JUMP JUMPDEST DUP5 PUSH2 0x2BB6 JUMP JUMPDEST PUSH1 0x20 DUP1 PUSH1 0x1F DUP4 GT PUSH1 0x1 DUP2 EQ PUSH2 0x2C5F JUMPI PUSH1 0x0 DUP5 ISZERO PUSH2 0x2C47 JUMPI POP DUP6 DUP4 ADD MLOAD JUMPDEST PUSH1 0x0 NOT PUSH1 0x3 DUP7 SWAP1 SHL SHR NOT AND PUSH1 0x1 DUP6 SWAP1 SHL OR DUP6 SSTORE PUSH2 0x1AB7 JUMP JUMPDEST PUSH1 0x0 DUP6 DUP2 MSTORE PUSH1 0x20 DUP2 KECCAK256 PUSH1 0x1F NOT DUP7 AND SWAP2 JUMPDEST DUP3 DUP2 LT ISZERO PUSH2 0x2C8E JUMPI DUP9 DUP7 ADD MLOAD DUP3 SSTORE SWAP5 DUP5 ADD SWAP5 PUSH1 0x1 SWAP1 SWAP2 ADD SWAP1 DUP5 ADD PUSH2 0x2C6F JUMP JUMPDEST POP DUP6 DUP3 LT ISZERO PUSH2 0x2CAC JUMPI DUP8 DUP6 ADD MLOAD PUSH1 0x0 NOT PUSH1 0x3 DUP9 SWAP1 SHL PUSH1 0xF8 AND SHR NOT AND DUP2 SSTORE JUMPDEST POP POP POP POP POP PUSH1 0x1 SWAP1 DUP2 SHL ADD SWAP1 SSTORE POP JUMP JUMPDEST DUP2 DUP4 MSTORE DUP2 DUP2 PUSH1 0x20 DUP6 ADD CALLDATACOPY POP PUSH1 0x0 DUP3 DUP3 ADD PUSH1 0x20 SWAP1 DUP2 ADD SWAP2 SWAP1 SWAP2 MSTORE PUSH1 0x1F SWAP1 SWAP2 ADD PUSH1 0x1F NOT AND SWAP1 SWAP2 ADD ADD SWAP1 JUMP JUMPDEST PUSH1 0x40 DUP2 MSTORE DUP3 CALLDATALOAD PUSH1 0x40 DUP3 ADD MSTORE PUSH1 0x20 DUP4 ADD CALLDATALOAD PUSH1 0x60 DUP3 ADD MSTORE PUSH1 0x40 DUP4 ADD CALLDATALOAD PUSH1 0x80 DUP3 ADD MSTORE PUSH1 0x60 DUP4 ADD CALLDATALOAD PUSH1 0xA0 DUP3 ADD MSTORE PUSH1 0x80 DUP4 ADD CALLDATALOAD PUSH1 0xC0 DUP3 ADD MSTORE PUSH1 0xA0 DUP4 ADD CALLDATALOAD PUSH1 0xE0 DUP3 ADD MSTORE PUSH1 0x0 PUSH2 0x2D30 PUSH1 0xC0 DUP6 ADD PUSH2 0x2619 JUMP JUMPDEST PUSH1 0x1 PUSH1 0x1 PUSH1 0xA0 SHL SUB AND PUSH2 0x100 DUP4 DUP2 ADD SWAP2 SWAP1 SWAP2 MSTORE PUSH1 0xE0 DUP6 ADD CALLDATALOAD SWAP1 CALLDATASIZE DUP7 SWAP1 SUB PUSH1 0x1E NOT ADD DUP3 SLT PUSH2 0x2D5C JUMPI PUSH1 0x0 DUP1 REVERT JUMPDEST PUSH1 0x20 SWAP2 DUP7 ADD SWAP2 DUP3 ADD SWAP2 CALLDATALOAD PUSH8 0xFFFFFFFFFFFFFFFF DUP2 GT ISZERO PUSH2 0x2D7B JUMPI PUSH1 0x0 DUP1 REVERT JUMPDEST DUP1 CALLDATASIZE SUB DUP4 SGT ISZERO PUSH2 0x2D8A JUMPI PUSH1 0x0 DUP1 REVERT JUMPDEST DUP2 PUSH2 0x120 DUP7 ADD MSTORE PUSH2 0x2DA0 PUSH2 0x140 DUP7 ADD DUP3 DUP6 PUSH2 0x2CBC JUMP JUMPDEST SWAP4 POP POP POP POP PUSH2 0x682 PUSH1 0x20 DUP4 ADD DUP5 ISZERO ISZERO SWAP1 MSTORE JUMP JUMPDEST DUP2 DUP2 SUB DUP2 DUP2 GT ISZERO PUSH2 0x62C JUMPI PUSH2 0x62C PUSH2 0x2B3F JUMP JUMPDEST PUSH4 0x4E487B71 PUSH1 0xE0 SHL PUSH1 0x0 MSTORE PUSH1 0x32 PUSH1 0x4 MSTORE PUSH1 0x24 PUSH1 0x0 REVERT JUMPDEST DUP3 DUP5 DUP3 CALLDATACOPY PUSH1 0x60 SWAP2 SWAP1 SWAP2 SHL PUSH1 0x1 PUSH1 0x1 PUSH1 0x60 SHL SUB NOT AND SWAP2 ADD SWAP1 DUP2 MSTORE PUSH1 0x14 ADD SWAP2 SWAP1 POP JUMP JUMPDEST PUSH1 0x0 PUSH1 0x1 DUP3 ADD PUSH2 0x2E0F JUMPI PUSH2 0x2E0F PUSH2 0x2B3F JUMP JUMPDEST POP PUSH1 0x1 ADD SWAP1 JUMP JUMPDEST PUSH1 0x0 DUP1 DUP4 CALLDATALOAD PUSH1 0x1E NOT DUP5 CALLDATASIZE SUB ADD DUP2 SLT PUSH2 0x2E2D JUMPI PUSH1 0x0 DUP1 REVERT JUMPDEST DUP4 ADD DUP1 CALLDATALOAD SWAP2 POP PUSH8 0xFFFFFFFFFFFFFFFF DUP3 GT ISZERO PUSH2 0x2E48 JUMPI PUSH1 0x0 DUP1 REVERT JUMPDEST PUSH1 0x20 ADD SWAP2 POP PUSH1 0x5 DUP2 SWAP1 SHL CALLDATASIZE SUB DUP3 SGT ISZERO PUSH2 0x2BAF JUMPI PUSH1 0x0 DUP1 REVERT JUMPDEST DUP1 DUP3 MUL DUP2 ISZERO DUP3 DUP3 DIV DUP5 EQ OR PUSH2 0x62C JUMPI PUSH2 0x62C PUSH2 0x2B3F JUMP JUMPDEST PUSH1 0x0 DUP3 PUSH2 0x2E94 JUMPI PUSH4 0x4E487B71 PUSH1 0xE0 SHL PUSH1 0x0 MSTORE PUSH1 0x12 PUSH1 0x4 MSTORE PUSH1 0x24 PUSH1 0x0 REVERT JUMPDEST POP DIV SWAP1 JUMP JUMPDEST PUSH1 0x40 DUP2 MSTORE PUSH1 0x0 PUSH2 0x2EAC PUSH1 0x40 DUP4 ADD DUP6 PUSH2 0x25DA JUMP JUMPDEST DUP3 DUP2 SUB PUSH1 0x20 DUP5 ADD MSTORE PUSH2 0x2EBE DUP2 DUP6 PUSH2 0x25DA JUMP JUMPDEST SWAP6 SWAP5 POP POP POP POP POP JUMP JUMPDEST PUSH1 0x0 DUP3 MLOAD PUSH2 0x2ED9 DUP2 DUP5 PUSH1 0x20 DUP8 ADD PUSH2 0x25B6 JUMP JUMPDEST SWAP2 SWAP1 SWAP2 ADD SWAP3 SWAP2 POP POP JUMP JUMPDEST PUSH4 0x4E487B71 PUSH1 0xE0 SHL PUSH1 0x0 MSTORE PUSH1 0x21 PUSH1 0x4 MSTORE PUSH1 0x24 PUSH1 0x0 REVERT JUMPDEST PUSH1 0x0 PUSH1 0x20 DUP3 DUP5 SUB SLT ISZERO PUSH2 0x2F0B JUMPI PUSH1 0x0 DUP1 REVERT JUMPDEST DUP2 MLOAD PUSH2 0x682 DUP2 PUSH2 0x26B6 JUMP INVALID COINBASE PUSH5 0x6472657373 GASPRICE KECCAK256 PUSH13 0x6F772D6C6576656C2064656C65 PUSH8 0x6174652063616C6C KECCAK256 PUSH7 0x61696C6564A264 PUSH10 0x706673582212209D3170 SLOAD 0xEF 0x24 PUSH24 0x7BC824A93B3AAED016E803F49F77A6295CC35D784D311E5 0xED PUSH5 0x736F6C6343 STOP ADDMOD GT STOP CALLER "},"methodIdentifiers":{"DOMAIN_SEPARATOR()":"3644e515","allowance(address,address)":"dd62ed3e","approve(address,uint256)":"095ea7b3","balanceOf(address)":"70a08231","burn(uint256)":"42966c68","burnFrom(address,uint256)":"79cc6790","claim(address,uint256,address,uint256,(bytes32[],uint256,uint256,address),bytes)":"84bb1e42","claimCondition()":"d637ed59","contractURI()":"e8a3d485","decimals()":"313ce567","decreaseAllowance(address,uint256)":"a457c2d7","getSupplyClaimedByWallet(address)":"35b65e1f","increaseAllowance(address,uint256)":"39509351","multicall(bytes[])":"ac9650d8","name()":"06fdde03","nonces(address)":"7ecebe00","owner()":"8da5cb5b","permit(address,address,uint256,uint256,uint8,bytes32,bytes32)":"d505accf","primarySaleRecipient()":"079fe40e","setClaimConditions((uint256,uint256,uint256,uint256,bytes32,uint256,address,string),bool)":"426cfaf3","setContractURI(string)":"938e3d7b","setOwner(address)":"13af4035","setPrimarySaleRecipient(address)":"6f4f2837","symbol()":"95d89b41","totalSupply()":"18160ddd","transfer(address,uint256)":"a9059cbb","transferFrom(address,address,uint256)":"23b872dd","verifyClaim(address,uint256,address,uint256,(bytes32[],uint256,uint256,address))":"eec8897c"}}}}}