{
  "_format": "hh-sol-artifact-1",
  "contractName": "Multicall",
  "sourceName": "@thirdweb-dev/contracts/extension/Multicall.sol",
  "abi": [
    {
      "inputs": [
        {
          "internalType": "bytes[]",
          "name": "data",
          "type": "bytes[]"
        }
      ],
      "name": "multicall",
      "outputs": [
        {
          "internalType": "bytes[]",
          "name": "results",
          "type": "bytes[]"
        }
      ],
      "stateMutability": "nonpayable",
      "type": "function"
    }
  ],
  "bytecode": "0x608060405234801561001057600080fd5b50610597806100206000396000f3fe608060405234801561001057600080fd5b506004361061002b5760003560e01c8063ac9650d814610030575b600080fd5b61004361003e36600461031d565b610059565b60405161005091906103e2565b60405180910390f35b60608167ffffffffffffffff81111561007457610074610444565b6040519080825280602002602001820160405280156100a757816020015b60608152602001906001900390816100925790505b509050336000805b848110156101c057811561012e5761010c308787848181106100d3576100d361045a565b90506020028101906100e59190610470565b866040516020016100f8939291906104be565b6040516020818303038152906040526101c9565b84828151811061011e5761011e61045a565b60200260200101819052506101ae565b610190308787848181106101445761014461045a565b90506020028101906101569190610470565b8080601f0160208091040260200160405190810160405280939291908181526020018383808284376000920191909152506101c992505050565b8482815181106101a2576101a261045a565b60200260200101819052505b806101b8816104e4565b9150506100af565b50505092915050565b60606101ee838360405180606001604052806027815260200161053b602791396101f5565b9392505050565b6060600080856001600160a01b031685604051610212919061050b565b600060405180830381855af49150503d806000811461024d576040519150601f19603f3d011682016040523d82523d6000602084013e610252565b606091505b50915091506102638683838761026d565b9695505050505050565b606083156102e15782516000036102da576001600160a01b0385163b6102da5760405162461bcd60e51b815260206004820152601d60248201527f416464726573733a2063616c6c20746f206e6f6e2d636f6e747261637400000060448201526064015b60405180910390fd5b50816102eb565b6102eb83836102f3565b949350505050565b8151156103035781518083602001fd5b8060405162461bcd60e51b81526004016102d19190610527565b6000806020838503121561033057600080fd5b823567ffffffffffffffff8082111561034857600080fd5b818501915085601f83011261035c57600080fd5b81358181111561036b57600080fd5b8660208260051b850101111561038057600080fd5b60209290920196919550909350505050565b60005b838110156103ad578181015183820152602001610395565b50506000910152565b600081518084526103ce816020860160208601610392565b601f01601f19169290920160200192915050565b6000602080830181845280855180835260408601915060408160051b870101925083870160005b8281101561043757603f198886030184526104258583516103b6565b94509285019290850190600101610409565b5092979650505050505050565b634e487b7160e01b600052604160045260246000fd5b634e487b7160e01b600052603260045260246000fd5b6000808335601e1984360301811261048757600080fd5b83018035915067ffffffffffffffff8211156104a257600080fd5b6020019150368190038213156104b757600080fd5b9250929050565b8284823760609190911b6bffffffffffffffffffffffff19169101908152601401919050565b60006001820161050457634e487b7160e01b600052601160045260246000fd5b5060010190565b6000825161051d818460208701610392565b9190910192915050565b6020815260006101ee60208301846103b656fe416464726573733a206c6f772d6c6576656c2064656c65676174652063616c6c206661696c6564a264697066735822122017651882010a22a61434e7fbff8813b0a7ab3c57a92bcbb7e8a03b56284780e864736f6c63430008110033",
  "linkReferences": {},
  "deployedLinkReferences": {}
}