{
  "_format": "hh-sol-artifact-1",
  "contractName": "ERC20",
  "sourceName": "@thirdweb-dev/contracts/external-deps/openzeppelin/token/ERC20/ERC20.sol",
  "abi": [
    {
      "inputs": [
        {
          "internalType": "string",
          "name": "name_",
          "type": "string"
        },
        {
          "internalType": "string",
          "name": "symbol_",
          "type": "string"
        }
      ],
      "stateMutability": "nonpayable",
      "type": "constructor"
    },
    {
      "anonymous": false,
      "inputs": [
        {
          "indexed": true,
          "internalType": "address",
          "name": "owner",
          "type": "address"
        },
        {
          "indexed": true,
          "internalType": "address",
          "name": "spender",
          "type": "address"
        },
        {
          "indexed": false,
          "internalType": "uint256",
          "name": "value",
          "type": "uint256"
        }
      ],
      "name": "Approval",
      "type": "event"
    },
    {
      "anonymous": false,
      "inputs": [
        {
          "indexed": true,
          "internalType": "address",
          "name": "from",
          "type": "address"
        },
        {
          "indexed": true,
          "internalType": "address",
          "name": "to",
          "type": "address"
        },
        {
          "indexed": false,
          "internalType": "uint256",
          "name": "value",
          "type": "uint256"
        }
      ],
      "name": "Transfer",
      "type": "event"
    },
    {
      "inputs": [
        {
          "internalType": "address",
          "name": "owner",
          "type": "address"
        },
        {
          "internalType": "address",
          "name": "spender",
          "type": "address"
        }
      ],
      "name": "allowance",
      "outputs": [
        {
          "internalType": "uint256",
          "name": "",
          "type": "uint256"
        }
      ],
      "stateMutability": "view",
      "type": "function"
    },
    {
      "inputs": [
        {
          "internalType": "address",
          "name": "spender",
          "type": "address"
        },
        {
          "internalType": "uint256",
          "name": "amount",
          "type": "uint256"
        }
      ],
      "name": "approve",
      "outputs": [
        {
          "internalType": "bool",
          "name": "",
          "type": "bool"
        }
      ],
      "stateMutability": "nonpayable",
      "type": "function"
    },
    {
      "inputs": [
        {
          "internalType": "address",
          "name": "account",
          "type": "address"
        }
      ],
      "name": "balanceOf",
      "outputs": [
        {
          "internalType": "uint256",
          "name": "",
          "type": "uint256"
        }
      ],
      "stateMutability": "view",
      "type": "function"
    },
    {
      "inputs": [],
      "name": "decimals",
      "outputs": [
        {
          "internalType": "uint8",
          "name": "",
          "type": "uint8"
        }
      ],
      "stateMutability": "view",
      "type": "function"
    },
    {
      "inputs": [
        {
          "internalType": "address",
          "name": "spender",
          "type": "address"
        },
        {
          "internalType": "uint256",
          "name": "subtractedValue",
          "type": "uint256"
        }
      ],
      "name": "decreaseAllowance",
      "outputs": [
        {
          "internalType": "bool",
          "name": "",
          "type": "bool"
        }
      ],
      "stateMutability": "nonpayable",
      "type": "function"
    },
    {
      "inputs": [
        {
          "internalType": "address",
          "name": "spender",
          "type": "address"
        },
        {
          "internalType": "uint256",
          "name": "addedValue",
          "type": "uint256"
        }
      ],
      "name": "increaseAllowance",
      "outputs": [
        {
          "internalType": "bool",
          "name": "",
          "type": "bool"
        }
      ],
      "stateMutability": "nonpayable",
      "type": "function"
    },
    {
      "inputs": [],
      "name": "name",
      "outputs": [
        {
          "internalType": "string",
          "name": "",
          "type": "string"
        }
      ],
      "stateMutability": "view",
      "type": "function"
    },
    {
      "inputs": [],
      "name": "symbol",
      "outputs": [
        {
          "internalType": "string",
          "name": "",
          "type": "string"
        }
      ],
      "stateMutability": "view",
      "type": "function"
    },
    {
      "inputs": [],
      "name": "totalSupply",
      "outputs": [
        {
          "internalType": "uint256",
          "name": "",
          "type": "uint256"
        }
      ],
      "stateMutability": "view",
      "type": "function"
    },
    {
      "inputs": [
        {
          "internalType": "address",
          "name": "to",
          "type": "address"
        },
        {
          "internalType": "uint256",
          "name": "amount",
          "type": "uint256"
        }
      ],
      "name": "transfer",
      "outputs": [
        {
          "internalType": "bool",
          "name": "",
          "type": "bool"
        }
      ],
      "stateMutability": "nonpayable",
      "type": "function"
    },
    {
      "inputs": [
        {
          "internalType": "address",
          "name": "from",
          "type": "address"
        },
        {
          "internalType": "address",
          "name": "to",
          "type": "address"
        },
        {
          "internalType": "uint256",
          "name": "amount",
          "type": "uint256"
        }
      ],
      "name": "transferFrom",
      "outputs": [
        {
          "internalType": "bool",
          "name": "",
          "type": "bool"
        }
      ],
      "stateMutability": "nonpayable",
      "type": "function"
    }
  ],
  "bytecode": "0x60806040523480156200001157600080fd5b5060405162000bb738038062000bb783398101604081905262000034916200011f565b600362000042838262000218565b50600462000051828262000218565b505050620002e4565b634e487b7160e01b600052604160045260246000fd5b600082601f8301126200008257600080fd5b81516001600160401b03808211156200009f576200009f6200005a565b604051601f8301601f19908116603f01168101908282118183101715620000ca57620000ca6200005a565b81604052838152602092508683858801011115620000e757600080fd5b600091505b838210156200010b5785820183015181830184015290820190620000ec565b600093810190920192909252949350505050565b600080604083850312156200013357600080fd5b82516001600160401b03808211156200014b57600080fd5b620001598683870162000070565b935060208501519150808211156200017057600080fd5b506200017f8582860162000070565b9150509250929050565b600181811c908216806200019e57607f821691505b602082108103620001bf57634e487b7160e01b600052602260045260246000fd5b50919050565b601f8211156200021357600081815260208120601f850160051c81016020861015620001ee5750805b601f850160051c820191505b818110156200020f57828155600101620001fa565b5050505b505050565b81516001600160401b038111156200023457620002346200005a565b6200024c8162000245845462000189565b84620001c5565b602080601f8311600181146200028457600084156200026b5750858301515b600019600386901b1c1916600185901b1785556200020f565b600085815260208120601f198616915b82811015620002b55788860151825594840194600190910190840162000294565b5085821015620002d45787850151600019600388901b60f8161c191681555b5050505050600190811b01905550565b6108c380620002f46000396000f3fe608060405234801561001057600080fd5b50600436106100a95760003560e01c80633950935111610071578063395093511461012357806370a082311461013657806395d89b411461015f578063a457c2d714610167578063a9059cbb1461017a578063dd62ed3e1461018d57600080fd5b806306fdde03146100ae578063095ea7b3146100cc57806318160ddd146100ef57806323b872dd14610101578063313ce56714610114575b600080fd5b6100b66101c6565b6040516100c3919061070d565b60405180910390f35b6100df6100da366004610777565b610258565b60405190151581526020016100c3565b6002545b6040519081526020016100c3565b6100df61010f3660046107a1565b610272565b604051601281526020016100c3565b6100df610131366004610777565b610296565b6100f36101443660046107dd565b6001600160a01b031660009081526020819052604090205490565b6100b66102d5565b6100df610175366004610777565b6102e4565b6100df610188366004610777565b61037b565b6100f361019b3660046107ff565b6001600160a01b03918216600090815260016020908152604080832093909416825291909152205490565b6060600380546101d590610832565b80601f016020809104026020016040519081016040528092919081815260200182805461020190610832565b801561024e5780601f106102235761010080835404028352916020019161024e565b820191906000526020600020905b81548152906001019060200180831161023157829003601f168201915b5050505050905090565b600033610266818585610389565b60019150505b92915050565b6000336102808582856104ad565b61028b85858561053f565b506001949350505050565b3360008181526001602090815260408083206001600160a01b038716845290915281205490919061026690829086906102d090879061086c565b610389565b6060600480546101d590610832565b3360008181526001602090815260408083206001600160a01b03871684529091528120549091908381101561036e5760405162461bcd60e51b815260206004820152602560248201527f45524332303a2064656372656173656420616c6c6f77616e63652062656c6f77604482015264207a65726f60d81b60648201526084015b60405180910390fd5b61028b8286868403610389565b60003361026681858561053f565b6001600160a01b0383166103eb5760405162461bcd60e51b8152602060048201526024808201527f45524332303a20617070726f76652066726f6d20746865207a65726f206164646044820152637265737360e01b6064820152608401610365565b6001600160a01b03821661044c5760405162461bcd60e51b815260206004820152602260248201527f45524332303a20617070726f766520746f20746865207a65726f206164647265604482015261737360f01b6064820152608401610365565b6001600160a01b0383811660008181526001602090815260408083209487168084529482529182902085905590518481527f8c5be1e5ebec7d5bd14f71427d1e84f3dd0314c0f7b2291e5b200ac8c7c3b925910160405180910390a3505050565b6001600160a01b038381166000908152600160209081526040808320938616835292905220546000198114610539578181101561052c5760405162461bcd60e51b815260206004820152601d60248201527f45524332303a20696e73756666696369656e7420616c6c6f77616e63650000006044820152606401610365565b6105398484848403610389565b50505050565b6001600160a01b0383166105a35760405162461bcd60e51b815260206004820152602560248201527f45524332303a207472616e736665722066726f6d20746865207a65726f206164604482015264647265737360d81b6064820152608401610365565b6001600160a01b0382166106055760405162461bcd60e51b815260206004820152602360248201527f45524332303a207472616e7366657220746f20746865207a65726f206164647260448201526265737360e81b6064820152608401610365565b6001600160a01b0383166000908152602081905260409020548181101561067d5760405162461bcd60e51b815260206004820152602660248201527f45524332303a207472616e7366657220616d6f756e7420657863656564732062604482015265616c616e636560d01b6064820152608401610365565b6001600160a01b038085166000908152602081905260408082208585039055918516815290812080548492906106b490849061086c565b92505081905550826001600160a01b0316846001600160a01b03167fddf252ad1be2c89b69c2b068fc378daa952ba7f163c4a11628f55a4df523b3ef8460405161070091815260200190565b60405180910390a3610539565b600060208083528351808285015260005b8181101561073a5785810183015185820160400152820161071e565b506000604082860101526040601f19601f8301168501019250505092915050565b80356001600160a01b038116811461077257600080fd5b919050565b6000806040838503121561078a57600080fd5b6107938361075b565b946020939093013593505050565b6000806000606084860312156107b657600080fd5b6107bf8461075b565b92506107cd6020850161075b565b9150604084013590509250925092565b6000602082840312156107ef57600080fd5b6107f88261075b565b9392505050565b6000806040838503121561081257600080fd5b61081b8361075b565b91506108296020840161075b565b90509250929050565b600181811c9082168061084657607f821691505b60208210810361086657634e487b7160e01b600052602260045260246000fd5b50919050565b8082018082111561026c57634e487b7160e01b600052601160045260246000fdfea2646970667358221220a853efaf106f3982cf3dedc5cf4aad6c65272e6c96cca6c53211f9212309b91164736f6c63430008110033",
  "linkReferences": {},
  "deployedLinkReferences": {}
}