{
  "_format": "hh-sol-artifact-1",
  "contractName": "CurrencyTransferLib",
  "sourceName": "@thirdweb-dev/contracts/lib/CurrencyTransferLib.sol",
  "abi": [
    {
      "inputs": [
        {
          "internalType": "address",
          "name": "recipient",
          "type": "address"
        },
        {
          "internalType": "uint256",
          "name": "value",
          "type": "uint256"
        }
      ],
      "name": "CurrencyTransferLibFailedNativeTransfer",
      "type": "error"
    },
    {
      "inputs": [
        {
          "internalType": "uint256",
          "name": "expected",
          "type": "uint256"
        },
        {
          "internalType": "uint256",
          "name": "actual",
          "type": "uint256"
        }
      ],
      "name": "CurrencyTransferLibMismatchedValue",
      "type": "error"
    },
    {
      "inputs": [],
      "name": "NATIVE_TOKEN",
      "outputs": [
        {
          "internalType": "address",
          "name": "",
          "type": "address"
        }
      ],
      "stateMutability": "view",
      "type": "function"
    }
  ],
  "bytecode": "0x60a4610038600b82828239805160001a607314602b57634e487b7160e01b600052600060045260246000fd5b30600052607381538281f3fe730000000000000000000000000000000000000000301460806040526004361060335760003560e01c806331f7d964146038575b600080fd5b605273eeeeeeeeeeeeeeeeeeeeeeeeeeeeeeeeeeeeeeee81565b6040516001600160a01b03909116815260200160405180910390f3fea26469706673582212201a559ddfbbdf7dad9350a66316a1836a9c658e10c8267352cd42c30caf9ac7d764736f6c63430008110033",
  "linkReferences": {},
  "deployedLinkReferences": {}
}